:020000040000fa
:080000000002040000000000f2
:020000040000fa
:04000800da04000016
:020000040000fa
:04000c00da04000012
:020000040000fa
:04001000da0400000e
:020000040000fa
:04001400da0400000a
:020000040000fa
:04001800da04000006
:020000040000fa
:04001c00da04000002
:020000040000fa
:04002000da040000fe
:020000040000fa
:04002400da040000fa
:020000040000fa
:04002800da040000f6
:020000040000fa
:04002c00da040000f2
:020000040000fa
:04003000da040000ee
:020000040000fa
:04003400da040000ea
:020000040000fa
:04003800da040000e6
:020000040000fa
:04003c00da040000e2
:020000040000fa
:04004000da040000de
:020000040000fa
:04004400da040000da
:020000040000fa
:04004800f0030000c1
:020000040000fa
:04004c00da040000d2
:020000040000fa
:04005000da040000ce
:020000040000fa
:04005400c8020000de
:020000040000fa
:04005800da040000c6
:020000040000fa
:04005c00da040000c2
:020000040000fa
:04006000da040000be
:020000040000fa
:04006400da040000ba
:020000040000fa
:04006800da040000b6
:020000040000fa
:04006c00da040000b2
:020000040000fa
:04007000da040000ae
:020000040000fa
:04007400ac030000d9
:020000040000fa
:04007800da040000a6
:020000040000fa
:04007c00da040000a2
:020000040000fa
:04008000da0400009e
:020000040000fa
:04008400da0400009a
:020000040000fa
:04008800da04000096
:020000040000fa
:04008c00da04000092
:020000040000fa
:04009000da0400008e
:020000040000fa
:04009400da0400008a
:020000040000fa
:04009800da04000086
:020000040000fa
:04009c00da04000082
:020000040000fa
:0400a000fa02000060
:020000040000fa
:0400a400da0400007a
:020000040000fa
:0400a800da04000076
:020000040000fa
:0400ac00da04000072
:020000040000fa
:0400b000da0400006e
:020000040000fa
:0400b400da0400006a
:020000040000fa
:0400b800da04000066
:020000040000fa
:0400bc00da04000062
:020000040000fa
:0400c000da0400005e
:020000040000fa
:0400c400da0400005a
:020000040000fa
:0400c800da04000056
:020000040000fa
:0400cc00da04000052
:020000040000fa
:0400d000da0400004e
:020000040000fa
:0400d400da0400004a
:020000040000fa
:0400d800da04000046
:020000040000fa
:0400dc00da04000042
:020000040000fa
:0400e000da0400003e
:020000040000fa
:0400e400da0400003a
:020000040000fa
:0400e800da04000036
:020000040000fa
:0400ec00da04000032
:020000040000fa
:0400f000da0400002e
:020000040000fa
:0400f400da0400002a
:020000040000fa
:0400f800da04000026
:020000040000fa
:0400fc00da04000022
:020000040000fa
:04010000da0400001d
:020000040000fa
:04010400da04000019
:020000040000fa
:04010800da04000015
:020000040000fa
:04010c00da04000011
:020000040000fa
:04011000da0400000d
:020000040000fa
:04011400da04000009
:020000040000fa
:04011800da04000005
:020000040000fa
:04011c00da04000001
:020000040000fa
:04012000da040000fd
:020000040000fa
:04012400da040000f9
:020000040000fa
:04012800da040000f5
:020000040000fa
:04012c00500300007c
:020000040000fa
:040130007e0300004a
:020000040000fa
:04013400da040000e9
:020000040000fa
:04013800da040000e5
:020000040000fa
:04013c00da040000e1
:020000040000fa
:04014000da040000dd
:020000040000fa
:04014400da040000d9
:020000040000fa
:04014800da040000d5
:020000040000fa
:04014c00da040000d1
:020000040000fa
:04015000da040000cd
:020000040000fa
:04015400da040000c9
:020000040000fa
:04015800da040000c5
:020000040000fa
:04015c00da040000c1
:020000040000fa
:04016000da040000bd
:020000040000fa
:04016400da040000b9
:020000040000fa
:04020800da04000014
:020000040000fa
:04020c00da04000010
:020000040000fa
:04021000da0400000c
:020000040000fa
:04021400da04000008
:020000040000fa
:04021800da04000004
:020000040000fa
:04021c00da04000000
:020000040000fa
:04022000da040000fc
:020000040000fa
:04022400da040000f8
:020000040000fa
:04022800da040000f4
:020000040000fa
:04022c00da040000f0
:020000040000fa
:04023000da040000ec
:020000040000fa
:04023400da040000e8
:020000040000fa
:04023800da040000e4
:020000040000fa
:04023c00da040000e0
:020000040000fa
:04024000da040000dc
:020000040000fa
:04024400da040000d8
:020000040000fa
:04024800da040000d4
:020000040000fa
:04024c00da040000d0
:020000040000fa
:04025000da040000cc
:020000040000fa
:04025400da040000c8
:020000040000fa
:04025800da040000c4
:020000040000fa
:04025c00da040000c0
:020000040000fa
:04026000da040000bc
:020000040000fa
:04026400da040000b8
:020000040000fa
:04026800da040000b4
:020000040000fa
:04026c00da040000b0
:020000040000fa
:04027000da040000ac
:020000040000fa
:04027400da040000a8
:020000040000fa
:04027800da040000a4
:020000040000fa
:04027c00da040000a0
:020000040000fa
:04028000da0400009c
:020000040000fa
:04028400da04000098
:020000040000fa
:04028800da04000094
:020000040000fa
:04028c00da04000090
:020000040000fa
:04029000da0400008c
:020000040000fa
:04029400da04000088
:020000040000fa
:04029800da04000084
:020000040000fa
:04029c00da04000080
:020000040000fa
:0402a000da0400007c
:020000040000fa
:0402a400da04000078
:020000040000fa
:0402a800da04000074
:020000040000fa
:0402ac00da04000070
:020000040000fa
:0402b000da0400006c
:020000040000fa
:0402b400da04000068
:020000040000fa
:0402b800da04000064
:020000040000fa
:0402bc00da04000060
:020000040000fa
:0402c000da0400005c
:020000040000fa
:0402c400da04000058
:020000040000fa
:0402c800da04000054
:020000040000fa
:0402cc00da04000050
:020000040000fa
:0402d000da0400004c
:020000040000fa
:0402d400da04000048
:020000040000fa
:0402d800da04000044
:020000040000fa
:0402dc00da04000040
:020000040000fa
:0402e000da0400003c
:020000040000fa
:0402e400da04000038
:020000040000fa
:0402e800da04000034
:020000040000fa
:0402ec00da04000030
:020000040000fa
:0402f000da0400002c
:020000040000fa
:0402f400da04000028
:020000040000fa
:0402f800da04000024
:020000040000fa
:0402fc00da04000020
:020000040000fa
:04030000da0400001b
:020000040000fa
:04030400da04000017
:020000040000fa
:04030800da04000013
:020000040000fa
:04030c00da0400000f
:020000040000fa
:04031000da0400000b
:020000040000fa
:04031400da04000007
:020000040000fa
:04031800da04000003
:020000040000fa
:04031c00da040000ff
:020000040000fa
:04032000da040000fb
:020000040000fa
:04032400da040000f7
:020000040000fa
:04032800da040000f3
:020000040000fa
:04032c00da040000ef
:020000040000fa
:04033000da040000eb
:020000040000fa
:04033400da040000e7
:020000040000fa
:04033800da040000e3
:020000040000fa
:04033c00da040000df
:020000040000fa
:04034000da040000db
:020000040000fa
:04034400da040000d7
:020000040000fa
:04034800da040000d3
:020000040000fa
:04034c00da040000cf
:020000040000fa
:04035000da040000cb
:020000040000fa
:04035400da040000c7
:020000040000fa
:04035800da040000c3
:020000040000fa
:04035c00da040000bf
:020000040000fa
:04036000da040000bb
:020000040000fa
:04036400da040000b7
:020000040000fa
:10040000cf8421000e7f22000e0188000000000032
:10041000000020000000e000020032000001200087
:100420002002880014000700640107000000e000bb
:1004300003003a00002c21000100200002003700d8
:100440000000200001002000810f70000100320038
:1004500014000700000020000000e000020032004d
:100460000000020000000000041302000000000071
:100470000040da000000fe004440a9000010200007
:100480000000e0000300320000002000a00188000e
:100490004440a800000006008a1f78008b1f7800e7
:1004a0000000060091018800800478000000eb0045
:1004b0001a003700e284440032a0b4009905ba0063
:1004c000e284440032a0b4009906ba00e2844400f9
:1004d00032a0b4000006eb00476fde00fd07b2005b
:1004e000636ce10003003a00ebff07000000eb0043
:1004f0000a003700606ce10004003a00005deb0088
:100500008b05e900fdff3e00040037006168e10053
:10051000010032000086eb000b00070019c7ba008b
:100520001905ba000e04e00003003a000a00e000da
:10053000e0ff3a0000000600fe07b2009e018800be
:100540008a047800f5ff3700395dba008b05e900b1
:100550000c003200295dba008b05e900080032006a
:100560000c00e00003003a00e284440032a0b40032
:10057000f5ff370019ddba008b05e900faff3a00f4
:100580008904e800e184440032a0b40000000600c1
:100590003600f800809fbe00829fbe00849fbe0090
:1005a000869fbe003400f80000002000a0018800f3
:1005b0000200fa000060fe00cce2a8005b04070025
:1005c0007d040700004f7800ccc2a900cce2a9004e
:1005d0008560a9000080fa003400f9004f03be00d6
:1005e0004f02be004f01be004f00be003600f900b2
:1005f000004006003600f800809fbe00829fbe00cb
:10060000849fbe00869fbe003400f80000002000da
:10061000a00188000000fa000060fe00cce2a80003
:10062000ac04070090808000e20f50000a003a00fe
:10063000f080200010407800f44f500006003a008f
:100640000081200010407800e14f400002003a0095
:10065000c304070003003700cce2a900ccc2a80005
:10066000e2040700ccc2a900cce2a9000a21ef00f5
:100670000621ef008500a90011e1a80087c0a900ac
:100680000080fa003400f9004f03be004f02be00a4
:100690004f01be004f00be003600f90000400600ca
:1006a000801f78003400f80000002000a0018800be
:1006b0000200fa001011800010118000620060003a
:1006c0000000e0000700320030118000004f780089
:1006d00030118000004f780030118000004f78000a
:1006e0002222a9008c20a9008560a9000080fa00c0
:1006f0003400f9004f00780000400600801f7800a9
:100700003400f80000002000a00188000200fa0078
:100710009011800090118000620060000000e000f5
:1007200007003200b0118000004f7800b011800047
:10073000004f7800b0118000004f78003222a900ed
:100740008c40a90087c0a9000080fa003400f9009d
:100750004f007800004006003600f800809fbe0081
:10076000829fbe00849fbe00869fbe003400f800ba
:1007700000002000a00188000000fa001016800090
:10078000700060000000e00002003a008660a900ee
:100790000b0037000060fe00ccc2a80010c0b30000
:1007a00096010700ccc2a900cce2a9000a21ef0003
:1007b0000621ef008500a90011e1a8008660a900cc
:1007c0000080fa003400f9004f03be004f02be0063
:1007d0004f01be004f00be003600f9000040060089
:1007e000809fbe003400f80000002000a0018800b7
:1007f0000000fa0009c8bf000080fb00510a200079
:10080000810f500036003200510a2000810f500045
:1008100004003c0071082000810f500008003200e5
:1008200057003700310c2000810f500018003200b3
:10083000110e2000810f50003d00320050003700a3
:1008400000c8bf00e24f50000d0036002083210099
:100850008040eb0001487800308321008040eb00ad
:1008600001487800408321008040eb000148780077
:10087000508321008040eb0001487800430037009e
:1008800000c8bf000040e80000e8b7003f003700a4
:1008900001c8bf00e24f50000d0036006083210008
:1008a0008040eb0001487800708321008040eb001d
:1008b00001487800808321008040eb0001487800e7
:1008c000908321008040eb00014878002f00370022
:1008d00001c8bf000040e80001e8b7002b00370066
:1008e00002c8bf00e24f50000d0036000084210016
:1008f0008040eb0001487800108421008040eb002c
:1009000001487800208421008040eb0001487800f5
:10091000308421008040eb00014878001b00370044
:1009200002c8bf000040e80002e8b7001700370027
:1009300003c8bf00e24f50000d0036004084210084
:100940008040eb0001487800508421008040eb009b
:1009500001487800608421008040eb000148780065
:10096000708421008040eb000148780007003700c8
:1009700003c8bf000040e80003e8b70003003700e9
:1009800070c8b30009e8b7000000000010c0b30051
:1009900008e8b7000a21ef000621ef008500a90052
:1009a00011e1a8000080fa003400f9004f00be00f9
:1009b000004006000040da000000fe0000000500d4
:020000040000fa
:1009c0000031000062530000c4f50000a69700004b
:1009d000b9880000dbea00007d4c00001f2e0000fb
:1009e000437200002110000087b60000e5d400002b
:1009f000facb000098a900003e0f00005c6d0000db
:100a000086b70000e4d5000042730000201100000a
:100a10003f0e00005d6c0000fbca000099a80000ba
:100a2000c5f40000a79600000130000063520000ea
:100a30007c4d00001e2f0000b8890000daeb00009a
:100a40003d0c00005f6e0000f9c800009baa00008a
:100a500084b50000e6d700004071000022130000ba
:100a60007e4f00001c2d0000ba8b0000d8e900006a
:100a7000c7f60000a594000003320000615000009a
:100a8000bb8a0000d9e800007f4e00001d2c00004a
:100a90000233000060510000c6f70000a49500007a
:100aa000f8c900009aab00003c0d00005e6f00002a
:100ab000417000002312000085b40000e7d600005a
:100ac0007a4b000018290000be8f0000dced00000a
:100ad000c3f20000a190000007360000655400003a
:100ae000390800005b6a0000fdcc00009fae0000ea
:100af00080b10000e2d3000044750000261700001a
:100b0000fccd00009eaf0000380900005a6b0000c9
:100b1000457400002716000081b00000e3d20000f9
:100b2000bf8e0000ddec00007b4a000019280000a9
:100b30000637000064550000c2f30000a0910000d9
:100b4000477600002514000083b20000e1d00000c9
:100b5000fecf00009cad00003a0b00005869000079
:100b60000435000066570000c0f10000a2930000a9
:100b7000bd8c0000dfee0000794800001b2a000059
:100b8000c1f00000a3920000053400006756000089
:100b9000784900001a2b0000bc8d0000deef000039
:100ba00082b30000e0d10000467700002415000069
:100bb0003b0a000059680000ffce00009dac000019
:020000040000fa
:100bc0000200fa0030ccb30009e8b700008321002e
:100bd0008040eb0001487800b00507001183210038
:100be000804878000040eb00004f78000600370096
:100bf0009e80fb0020832100008040008040eb00ad
:100c0000014878001e4fe8001e407800e74f500072
:100c1000f7ff3600a08321008040eb0001487800f8
:100c200080c1800091c18000a2c18000b3c180005a
:100c3000c4c18000d5c18000e6c180001f0207004a
:100c4000e0c18800e08321008040eb00014878008b
:100c500092050700f1832100804878000040eb00f6
:100c6000004f7800060037009e80fb0000842100c2
:100c7000008040008040eb00014878001e4fe800f3
:100c80001e407800e74f5000f7ff360080842100b7
:100c90008040eb0001487800f0c1800001c2800074
:100ca00012c2800023c2800034c2800045c280008e
:100cb00056c280000102070050c288000080fa007e
:100cc000000006000000fa0008c8bf000004a200ef
:100cd0000004e00032003a0068050700ccc2a8001a
:100ce0000060fe000868ef0009c8bf000080fb003c
:100cf000510a2000810f500014003200510a2000d8
:100d0000810f500004003c0071082000810f50004a
:100d10000800320013003700310c2000810f500012
:100d200007003200110e2000810f50000a0032002f
:100d30000c00370030ccb30009e8b7000c003700d6
:100d400050cab30009e8b7000900370010ceb3005d
:100d500009e8b7000600370070c8b30009e8b7001b
:100d60000300370070c8b30009e8b70000000000b6
:100d70000e0007000a21ef000621ef008500a90000
:100d800011e1a800090507000a21ef000621ef0084
:100d90008500a90011e1a800ccc2a900010037001c
:100da000000000000080fa00000006000000fa00c9
:100db000c402a800c422a90070592000010020002c
:100dc000030607009c01070009c8bf000e010700c9
:100dd00050c5b3000c01070009c8bf000a01070095
:100de000c422a800c402a900c0fd26000100200002
:100df000f70507000080fa00000006000400fa0072
:100e0000204798005b0107005a010700004f780057
:100e10005801070010479800008321008040eb0034
:100e2000014878001d0507001183210080487800e3
:100e3000e08321008040eb0001487800170507009f
:100e4000f18321008048780009c8bf000080fb00c2
:100e5000510a2000810f50003a003200510a200050
:100e6000810f500004003c0071082000810f5000e9
:100e7000080032005f003700310c2000810f500065
:100e80001a003200110e2000810f50004300320082
:100e9000580037008040eb001e407800a901070091
:100ea000218321008048780011c0b3001e407800e3
:100eb000a401070031832100804878008040eb00c6
:100ec0001e4090009f010700418321008048780068
:100ed00011c0b3001e4090009a0107005183210009
:100ee000804878000068ef00420037008040eb0047
:100ef0001e4078009301070061832100804878003c
:100f000011c0b3001e4078008e01070071832100dc
:100f1000804878008040eb001e4090008901070067
:100f2000818321008048780011c0b3001e409000ea
:100f30008401070091832100804878000168ef0058
:100f40002c0037008040eb001e4078007d01070038
:100f5000018421008048780011c0b3001e40780051
:100f60007801070011842100804878008040eb0060
:100f70001e40900073010700218421008048780002
:100f800011c0b3001e4090006e01070031842100a3
:100f9000804878000268ef00160037008040eb00c0
:100fa0001e407800670107004184210080487800d6
:100fb00011c0b3001e407800620107005184210077
:100fc000804878008040eb001e4090005d010700e3
:100fd000618421008048780011c0b3001e40900059
:100fe0005801070071842100804878000368ef00f1
:100ff0000000000010c0b30008e8b7000a21ef00ad
:101000000621ef008500a90011e1a8000080fa0088
:10101000000006000c00fa00881f780020079800e6
:101020003107980042079800234f98004e409000e7
:10103000104798005e409000204798006e40900056
:10104000304798004e0490000e00e8003100200068
:10105000fe040700800f540046003a002e4890001e
:101060000080fb000000e00003003200e10f5000b0
:101070000f0032001c00370080c1800091c1800049
:10108000a2c18000b3c18000c4c18000d5c180006e
:10109000e6c1800009010700e0c18800218221002b
:1010a0000283210006000900b21878000e00370004
:1010b000f0c1800001c2800012c2800023c2800003
:1010c00034c2800045c2800056c28000fb00070089
:1010d00050c2880021822100e2832100060009001d
:1010e000b2187800000000002002a800cde2a8009d
:1010f0002082210010407800220007003082210069
:10110000104078001f0007000040eb00004f7800ff
:10111000070037001e80fb008080e800208221004d
:101120000080400010407800160007001e4fe800c5
:101130001e407800e74f5000f6ff3600c0822100c5
:10114000104078000f00070070c1800019000700f0
:1011500000000000111180000010200000806000dd
:101160000000e000fbff3200cde2a9002002a90050
:1011700001003700000000004f0478000080fa00f2
:10118000000006000200fa00004f78001e80fb00fd
:1011900020118800000000001111800000202000b4
:1011a000008060000000e000fbff3a000080fa00d1
:1011b000000006000200fa00000f78001e00780010
:1011c0004800de002011880000000000111180009e
:1011d00000202000008060000000e000fbff3a00db
:1011e0009e0078002111880000000000111180008d
:1011f00000202000008060000000e000fbff3a00bb
:101200000080fa00000006000400fa002047980061
:10121000cd42a9000000000051168000000021000e
:10122000008060000000e000fbff3a00cd22a90032
:10123000b02c200001002000e5040700cd42a800ea
:10124000b02c200001002000e1040700cd42a900dd
:1012500000000000511680000000210000806000a6
:101260000000e000fbff3a000040eb00004f780078
:101270001d0037002e4090008080fb001e80fb0088
:101280000088de0000407800614060000080fb00c4
:10129000610060004900dd0062168000f1df2f0070
:1012a000810061000100700060168800b02c2000f1
:1012b00001002000c6040700cd42a800b02c200089
:1012c00001002000c2040700cd42a9000000000078
:1012d0005116800000002100008060000000e00046
:1012e000fbff3a001e4fe8001e407800e74f500019
:1012f000e0ff3600cd22a800b02c20000100200025
:10130000b3040700cd42a800b02c2000010020004b
:10131000af040700cd42a900000000005116800074
:1013200000002100008060000000e000fbff3a00a8
:10133000cd22a800b02c200001002000a40407004a
:10134000cd42a800b02c200001002000a00407001e
:10135000cd42a900000000005116800000002100cd
:10136000008060000000e000fbff3a000080fa000f
:10137000000006000200fa000040eb00004f780079
:10138000cd42a9000000000051168000000021009d
:10139000008060000000e000fbff3a000040eb002e
:1013a0001047980016003700b02c200001002000e4
:1013b00087040700cd42a800501680004800de00d8
:1013c000614060008080fb001e4090000080fb00b8
:1013d0000008dd00804078001e40780000c07000ea
:1013e000004f7800b02c2000010020007804070096
:1013f000cd42a9001e4090000040e8001047980030
:101400001e409000e74f5000e7ff3600b02c200050
:10141000010020006e040700cd42a800b02c20007f
:10142000010020006a040700cd42a9001e40780098
:101430000080fa00000006000200fa00cd42a90078
:1014400000000000511680000000210000806000b4
:101450000000e000fbff3a000000eb00000f780006
:1014600010003700cd22a800b02c20000100200081
:1014700057040700cd42a800b02c20000100200036
:1014800053040700cd42a90000000000511680005f
:1014900000002100008060000000e000fbff3a0037
:1014a0001e0fe800700220009e007800808f500020
:1014b000ecff36000080fa00000006001a00fa0077
:1014c0006007980071079800020f9800130f9800aa
:1014d000240f9800350f9800460f98004e48900052
:1014e000104798005e489000204798000040eb00ad
:1014f000004f7800090037001e80fb000080e800e4
:101500009e80fb008180e80081004700c148900078
:1015100000004700114098001e4fe8001e40780070
:10152000e74f5000f4ff36000040eb00304f9800ca
:101530000e00e800b1002000c40307000080fa009c
:10154000000006000200fa00004f780011479800e2
:101550001e409000e14f500037003a001e80fb0013
:1015600061006000004078000004e00006003200e6
:10157000418020009140780000ccb30000c0700092
:1015800004e8b7000300370004c8bf00f043b2000e
:1015900004e8b7001e80fb00620060000000e0006d
:1015a00006003200418020009140780000c3b30063
:1015b00000c0700004e8b70005003700418020003b
:1015c00091407800f0ccb30000c0600004e8b700a0
:1015d0001e80fb00640060000000e0000400320098
:1015e00004c8bf00c040b30004e8b70005003700de
:1015f000418020009140780030cfb30000c06000ef
:1016000004e8b7001e80fb00680060000000e000f6
:101610000400320004c8bf003040b30004e8b70043
:10162000050037004180200091407800c0cfb30012
:1016300000c0600004e8b7001e4090000004e00015
:1016400037003a001e80fb00700060000000e000e0
:1016500006003200418020009140780000ccb300a9
:1016600000c0700004e8b7000300370004c8bf00e2
:10167000f043b20004e8b7009e80fb0000022000a7
:10168000008060000000e000060032004180200081
:101690009140780000c3b30000c0700004e8b700b8
:1016a000050037004180200091407800f0ccb30065
:1016b00000c0600004e8b7009e80fb00000420002a
:1016c000008060000000e0000400320004c8bf0099
:1016d000c040b30004e8b700050037004180200097
:1016e0009140780030cfb30000c0600004e8b7003c
:1016f0001e4078000004e00004003d0004c8bf0064
:101700003040b30004e8b7000500370041802000f6
:1017100091407800c0cfb30000c0600004e8b7007b
:1017200004c8bf000080fa00000006000000fa00b4
:10173000f0802000808088000000eb00a0808800fe
:101740000000eb00908088008460a9000021ef0079
:1017500005e1a8000f003700101180006100600053
:101760000000e0000b00320080808000311180001a
:101770008140780001487800808080000000e80007
:1017800080808800908080000000e80090808800c1
:101790000021ef0020048000680060000000e000ed
:1017a000edff32008460a9000021ef0005e1a900ef
:1017b0000080fa00000006000800fa00b7020700e7
:1017c000004f7800f08020001040780020479800fb
:1017d00000812000104078003047980010812000e0
:1017e0001040780040479800208120001040780089
:1017f0000080fb00300798003e009000c800dd002c
:1018000030812000104078000080fb000100700053
:10181000300798002e4090000004e00012003a00cb
:101820003e4090009e4f50000f003a004e40900006
:101830000080fb004400de00004078000080fb00d8
:101840006e0060000000e000070032008041eb0005
:101850001e009000ae0090003e019000edfd0700dc
:1018600010c0b300190037002e4090000004e000c3
:1018700015003a003e4090008080fb001e80fb0077
:101880000000e800808f50000f003a004e409000aa
:101890000080fb004400de00004078000080fb0078
:1018a0006e0060000000e0000700320013c0b300cb
:1018b0001e009000ae0090003e019000d5fd070094
:1018c00010c0b300010037000040eb000080fa00b8
:1018d000000006000000fa00f080200080808800f0
:1018e0000000eb00a08088000000eb0090808800e2
:1018f0008460a9000021ef0005e1a8000f00370077
:1019000090118000610060000000e0000b003200d8
:1019100080808000b111800081407800014878000b
:10192000808080000000e800808088009080800037
:101930000000e800908088000021ef002004800073
:10194000680060000000e000edff32008460a90044
:101950000021ef0005e1a9000080fa000000060068
:101960000000fa00f0802000b1ceb30001487800fa
:101970004a020700018120008048780020002000f2
:1019800090808800f0802000808088009080800017
:10199000a080880010003700808080001040780010
:1019a0000080fb00a0118800808080000000e8001b
:1019b00080808800a08080000000e900a08088006e
:1019c00000000000911180000020200000806000d5
:1019d0000000e000fbff3a00a08080000000e00073
:1019e000edff3a000080fa00000006000400fa0053
:1019f000c402a800c422a9007059200001002000e0
:101a0000f30207008900070070c7b3001047980071
:101a1000908080004800de00004078002047980059
:101a20009080800000407800304798000e00e80069
:101a300031002000b3020700004f78001e409000e4
:101a40001f0007002e4090001d0007003e40900040
:101a50001b0007001e40780019000700f0802000de
:101a6000808088000000eb00a0808800090037001b
:101a70008080800010407800110007008080800086
:101a80000000e80080808800a08080000000e8005e
:101a9000a0808800a180800090808000808f50000e
:101aa000f3ff3900c422a800c402a900c0fd26002b
:101ab00001002000c60207000080fa0000000600b6
:101ac0000400fa0020479800cd42a9000000000061
:101ad0005116800000002100008060000000e0003e
:101ae000fbff3a00cd22a900b02c2000010020000d
:101af000b7020700cd42a800b02c20000100200052
:101b0000b3020700cd42a90000000000511680007a
:101b100000002100008060000000e000fbff3a00b0
:101b20000040eb00004f78001d0037002e40900071
:101b30008080fb001e80fb000088de0000407800f3
:101b4000614060000080fb00610060004900dd0032
:101b500062168000f1df2f0081006100010070003b
:101b600060168800b02c20000100200098020700b9
:101b7000cd42a800b02c20000100200094020700f4
:101b8000cd42a90000000000511680000000210095
:101b9000008060000000e000fbff3a001e4fe800fc
:101ba0001e407800e74f5000e0ff3600cd22a9002c
:101bb000b02c20000100200085020700cd42a800c3
:101bc000b02c20000100200081020700cd42a900b6
:101bd000000000005116800000002100008060001d
:101be0000000e000fbff3a00cd22a800b02c20004e
:101bf0000100200076020700cd42a800b02c200092
:101c00000100200072020700cd42a9000000000080
:101c10005116800000002100008060000000e000fc
:101c2000fbff3a000080fa00000006000200fa0004
:101c3000cd42a900000000005116800000002100e4
:101c4000008060000000e000fbff3a00cd22a80009
:101c5000b02c2000010020005d020700cd42a8004a
:101c6000b02c20000100200059020700cd42a9003d
:101c7000000000005116800000002100008060007c
:101c80000000e000fbff3a000000eb00000f7800ce
:101c900010003700cd22a800b02c20000100200049
:101ca0004b020700cd42a800b02c2000010020000c
:101cb00047020700cd42a900000000005116800035
:101cc00000002100008060000000e000fbff3a00ff
:101cd0001e0fe800200220009e007800808f500038
:101ce000ecff3600cd22a800b02c2000010020001f
:101cf00037020700cd42a800b02c200001002000d0
:101d000033020700cd42a9000000000051168000f8
:101d100000002100008060000000e000fbff3a00ae
:101d2000cd22a800b02c20000100200028020700ce
:101d3000cd42a800b02c20000100200024020700a2
:101d4000cd42a900000000005116800000002100d3
:101d5000008060000000e000fbff3a000080fa0015
:101d6000000006000000fa000f0007002300070033
:101d7000c60007004b000700760007009c00070024
:101d8000df0007008efb0700c422a800c402a900e0
:101d9000c0fd2600010020000d020700cde2a900d1
:101da0000080fa00000006000000fa00e0032000b6
:101db000303a8800213a800000fe2f000080600049
:101dc000203a8800213a8000000c200001007000b9
:101dd000203a88004827ef0040a7a9000000000033
:101de000113a800000022000008060000000e00046
:101df000fbff32000080fa00000006000000fa003d
:101e0000113a8000f0fb2f00008160006004200088
:101e100071052000237420008049780081497800f2
:101e2000824978002135800000fe2f00008060008c
:101e30000010a0002035880011368000f00f2e0021
:101e400080806000003020000100700010368800a3
:101e50003135800000fe2f0000806000d000b3000c
:101e6000303588007136800000fe2f000080600051
:101e70005000b30070368800103a800000017800ee
:101e80000260a0006004200071052000237420007f
:101e90008049780081497800824978000080fa0002
:101ea000000006000200fa0070c0b300004f780086
:101eb000cd42a900cc82a800cc82a900cc82a80087
:101ec0000668ef0006c8bf0080407800501680000a
:101ed0004500de00614060000081fb001e00fb0049
:101ee0000010dd000040780000c0700006e8b70078
:101ef00060c0b300004f78000e003700cd42a8004c
:101f0000cd42a90006c8bf0080407800501680006e
:101f10004500de00614060000081fb001e00fb0008
:101f20000010dd000040780000c0700006e8b70037
:101f30001e4fe9001e4078000004e000efff3d0066
:101f400006c8bf0000c0ea0006e8b7000080fa003b
:101f5000000006000000fa00d50007000080fb002a
:101f6000e10f50000d003200e10f500003003c0073
:101f70000000e0000600320011003700e20f5000c0
:101f800009003200e30f50000a0032000c00370055
:101f9000c00520004011880009003700d002200051
:101fa0004011880006003700e00120004011880041
:101fb00003003700e000200040118800000000000e
:101fc0002022ef002062a8002002a9002222ef00b8
:101fd00011118000f0f32f000080600010118800c4
:101fe00021e2a8002342a8000080fa0000000600b9
:101ff0000000fa00ae0007000080fb00e10f500077
:102000000d003200e10f500003003c000000e00032
:102010000600320011003700e20f500009003200c4
:10202000e30f50000a0032000c003700c00520000a
:10203000c011880009003700d0022000c0118800bc
:1020400006003700e0012000c011880003003700bf
:10205000e0002000c0118800000000003022ef00e6
:102060003062a8003002a9003222ef0091118000f6
:10207000f0f32f00008060009011880031e2a8008a
:102080003342a8000080fa00000006000000fa00b9
:102090000080eb0060198800c422a800c402a900d7
:1020a000cd22a800cdc2a800cc62a800cde2a90034
:1020b000c002a900c022a900c082a800c842a8008e
:1020c000c862a900c882a900c8a2a800c8c2a90005
:1020d000c8e2a900c902a800c922a900c942a900f2
:1020e000c962a900c982a800c9a2a800c9c2a900e2
:1020f000c9e2a900cd62a8000080fa000000060035
:102100000000fa006a0007000080fb00e10f5000a9
:102110000d003200e10f500003003c000000e00021
:102120000600320011003700e20f500009003200b3
:10213000e30f50000a0032000c003700d074210079
:10214000100888000900370060ba200010088800d5
:1021500006003700407c200010088800030037008c
:10216000203e2000100888000000000013e1a900b4
:1021700011e1a9001061a8001021a90010c1a90057
:1021800081088000f0fc2f0000806000800888003b
:102190000a21ef000621ef002007200070088800c8
:1021a0000c21ef000080fa00000006000000fa0099
:1021b00021068000f0f82f008080600000062000db
:1021c000010070002006880021068000f08f2f009b
:1021d0008080600000602000010070002006880000
:1021e00041058000f0ff280080806000000026008c
:1021f000010070004005880091058000f08f2f00dd
:102200008080600000602000010070009005880060
:1022100061058000f0ff280080806000000026003b
:1022200001007000600588004105800080ff2f00dc
:10223000008060000020a000400588008c20a900dc
:102240008c40a9008660a9008560a90087c0a9000c
:102250008500a9009500a80011e1a8006000a80071
:102260009660a8009560a80097c0a8009c20a800d0
:102270009c40a8000080fa00000006000000fa0060
:102280009560a90097c0a9009500a9006000a90069
:102290009660a9000080fa00000006000000fa0025
:1022a00030408000f043b2000080fa0000000600d9
:1022b0000000fa00304080004600de00634060000d
:1022c0000080fa00000006000000fa002002a800ca
:1022d0003002a800cde2a800b0012100e0c08800d3
:1022e000f0c0800000c1880019003700e0c0800005
:1022f000104078000080fb00a0118800e0c0800042
:10230000104078000080fb0020118800e0c08000b1
:102310000000e800e0c0880000c180000000e90083
:1023200000c1880000000000111180000020200082
:10233000008060000000e000fbff3a009111800087
:1023400000202000008060000000e000f6ff3a005e
:1023500000c180000000e000e4ff3a00000000003f
:102360001111800000102000008060000000e000db
:10237000fbff3200cde2a9002002a9003002a90033
:102380000080fa00000006000200fa000040eb00a6
:10239000004f7800cd42a9000000000051168000d7
:1023a00000002100008060000000e000fbff3a0018
:1023b0000040eb001047980016003700b02c2000ba
:1023c0000100200082000700cd42a80050168000c6
:1023d0004800de00614060008080fb001e409000ed
:1023e0000080fb000008dd00804078001e4078007f
:1023f00000c07000004f7800b02c200001002000c9
:1024000073000700cd42a9001e4090000040e80084
:10241000104798001e409000e74f5000e7ff36003d
:10242000b02c20000100200069000700cd42a80068
:10243000b02c20000100200065000700cd42a9005b
:102440001e4078000080fa00000006000a00fa0032
:1024500030079800410798000000eb00000f78005b
:10246000ce00900011079800200037003e00900039
:10247000104078000080fb004800dd001e0f68005f
:102480003e0090000000e800300798000000eb00dc
:10249000200798000f0037001e0078000000e000c1
:1024a00006003d001e00780000004000800078001b
:1024b00050002800008f6800030037001e007800dd
:1024c00000004000000f78002e0090000000e8009f
:1024d000200798002e009000e70f5000eeff340018
:1024e0001e0090000000e900100798001e009000f8
:1024f0000000e000ddff3a001e0078000080fa00d6
:10250000000006000800fa00200798003107980034
:10251000ae009000010f780000c0eb00204798004b
:10252000090037001e007800904078002e4090008f
:1025300000c068000080fb00014e28006141780067
:10254000224798001e0fe8003e00900000f0a70010
:102550000000ea000000ea004f00de0000407800c2
:10256000be0090008100e900310798000004e000ff
:10257000ecff3a002e4090000080fa0000000600b8
:020000040000fa
:102580000a0800000c080000000000000608000017
:102590000200000000000000161000000c080000ff
:1025a00000000000221800002a00000000000000c7
:1025b00008080000020000000200000001c3000043
:1025c00000080000060000000000000000000000fd
:020000040000fa
:1025d000f03fb1000180b10006003500ee030900b4
:1025e00000000000403fb1000180b100fbff3d0052
:1025f0001000b000203fb00002003500008009004c
:082600000000000000000600cc
:020000040000fa
:102608000000fa00d5fd0700e6fe0700c422a80076
:10261800c402a900c0fd260001002000eaff07004f
:1026280090e9290061032000e7ff0700a3f90700ec
:04263800fbff37006d
:020000040000fa
:0200000401f009
:04000000ffff0000fe
:020000040000fa
:0200000401f009
:04000400ffff0000fa
:020000040000fa
:0200000401f009
:04000800ffff0000f6
:020000040000fa
:0200000401f009
:04000c00830000006d
:020000040000fa
:0200000401f009
:04001000a500000047
:020000040000fa
:0200000401f009
:04001400cc0000001c
:020000040000fa
:0200000401f009
:04001800f7000000ed
:020000040000fa
:0200000401f009
:04001c00dfff000002
:00000001FF
