:020000040000fa
:080000000002040000000000f2
:020000040000fa
:040008000a050000e5
:020000040000fa
:04000c000a050000e1
:020000040000fa
:040010000a050000dd
:020000040000fa
:040014000a050000d9
:020000040000fa
:040018000a050000d5
:020000040000fa
:04001c000a050000d1
:020000040000fa
:040020000a050000cd
:020000040000fa
:040024000a050000c9
:020000040000fa
:040028000a050000c5
:020000040000fa
:04002c000a050000c1
:020000040000fa
:040030000a050000bd
:020000040000fa
:040034000a050000b9
:020000040000fa
:040038000a050000b5
:020000040000fa
:04003c000a050000b1
:020000040000fa
:040040000a050000ad
:020000040000fa
:040044000a050000a9
:020000040000fa
:040048002004000090
:020000040000fa
:04004c000a050000a1
:020000040000fa
:040050000a0500009d
:020000040000fa
:04005400260300007f
:020000040000fa
:040058000a05000095
:020000040000fa
:04005c000a05000091
:020000040000fa
:040060000a0500008d
:020000040000fa
:040064000a05000089
:020000040000fa
:040068000a05000085
:020000040000fa
:04006c000a05000081
:020000040000fa
:040070000a0500007d
:020000040000fa
:04007400c8020000be
:020000040000fa
:040078000a05000075
:020000040000fa
:04007c000a05000071
:020000040000fa
:040080000a0500006d
:020000040000fa
:040084000a05000069
:020000040000fa
:040088000a05000065
:020000040000fa
:04008c000a05000061
:020000040000fa
:040090000a0500005d
:020000040000fa
:040094000a05000059
:020000040000fa
:040098000a05000055
:020000040000fa
:04009c000a05000051
:020000040000fa
:0400a0006e030000eb
:020000040000fa
:0400a4000a05000049
:020000040000fa
:0400a8000a05000045
:020000040000fa
:0400ac000a05000041
:020000040000fa
:0400b0000a0500003d
:020000040000fa
:0400b4000a05000039
:020000040000fa
:0400b8000a05000035
:020000040000fa
:0400bc000a05000031
:020000040000fa
:0400c0000a0500002d
:020000040000fa
:0400c4000a05000029
:020000040000fa
:0400c8000a05000025
:020000040000fa
:0400cc000a05000021
:020000040000fa
:0400d0000a0500001d
:020000040000fa
:0400d4000a05000019
:020000040000fa
:0400d8000a05000015
:020000040000fa
:0400dc000a05000011
:020000040000fa
:0400e0000a0500000d
:020000040000fa
:0400e4000a05000009
:020000040000fa
:0400e8000a05000005
:020000040000fa
:0400ec000a05000001
:020000040000fa
:0400f0000a050000fd
:020000040000fa
:0400f4000a050000f9
:020000040000fa
:0400f8000a050000f5
:020000040000fa
:0400fc000a050000f1
:020000040000fa
:040100000a050000ec
:020000040000fa
:040104000a050000e8
:020000040000fa
:040108000a050000e4
:020000040000fa
:04010c000a050000e0
:020000040000fa
:040110000a050000dc
:020000040000fa
:040114000a050000d8
:020000040000fa
:040118000a050000d4
:020000040000fa
:04011c000a050000d0
:020000040000fa
:040120000a050000cc
:020000040000fa
:040124000a050000c8
:020000040000fa
:040128000a050000c4
:020000040000fa
:04012c00c403000008
:020000040000fa
:04013000f2030000d6
:020000040000fa
:040134000a050000b8
:020000040000fa
:040138000a050000b4
:020000040000fa
:04013c000a050000b0
:020000040000fa
:040140000a050000ac
:020000040000fa
:040144000a050000a8
:020000040000fa
:040148000a050000a4
:020000040000fa
:04014c000a050000a0
:020000040000fa
:040150000a0500009c
:020000040000fa
:040154000a05000098
:020000040000fa
:040158000a05000094
:020000040000fa
:04015c000a05000090
:020000040000fa
:040160000a0500008c
:020000040000fa
:040164000a05000088
:020000040000fa
:040208000a050000e3
:020000040000fa
:04020c000a050000df
:020000040000fa
:040210000a050000db
:020000040000fa
:040214000a050000d7
:020000040000fa
:040218000a050000d3
:020000040000fa
:04021c000a050000cf
:020000040000fa
:040220000a050000cb
:020000040000fa
:040224000a050000c7
:020000040000fa
:040228000a050000c3
:020000040000fa
:04022c000a050000bf
:020000040000fa
:040230000a050000bb
:020000040000fa
:040234000a050000b7
:020000040000fa
:040238000a050000b3
:020000040000fa
:04023c000a050000af
:020000040000fa
:040240000a050000ab
:020000040000fa
:040244000a050000a7
:020000040000fa
:040248000a050000a3
:020000040000fa
:04024c000a0500009f
:020000040000fa
:040250000a0500009b
:020000040000fa
:040254000a05000097
:020000040000fa
:040258000a05000093
:020000040000fa
:04025c000a0500008f
:020000040000fa
:040260000a0500008b
:020000040000fa
:040264000a05000087
:020000040000fa
:040268000a05000083
:020000040000fa
:04026c000a0500007f
:020000040000fa
:040270000a0500007b
:020000040000fa
:040274000a05000077
:020000040000fa
:040278000a05000073
:020000040000fa
:04027c000a0500006f
:020000040000fa
:040280000a0500006b
:020000040000fa
:040284000a05000067
:020000040000fa
:040288000a05000063
:020000040000fa
:04028c000a0500005f
:020000040000fa
:040290000a0500005b
:020000040000fa
:040294000a05000057
:020000040000fa
:040298000a05000053
:020000040000fa
:04029c000a0500004f
:020000040000fa
:0402a0000a0500004b
:020000040000fa
:0402a4000a05000047
:020000040000fa
:0402a8000a05000043
:020000040000fa
:0402ac000a0500003f
:020000040000fa
:0402b0000a0500003b
:020000040000fa
:0402b4000a05000037
:020000040000fa
:0402b8000a05000033
:020000040000fa
:0402bc000a0500002f
:020000040000fa
:0402c0000a0500002b
:020000040000fa
:0402c4000a05000027
:020000040000fa
:0402c8000a05000023
:020000040000fa
:0402cc000a0500001f
:020000040000fa
:0402d0000a0500001b
:020000040000fa
:0402d4000a05000017
:020000040000fa
:0402d8000a05000013
:020000040000fa
:0402dc000a0500000f
:020000040000fa
:0402e0000a0500000b
:020000040000fa
:0402e4000a05000007
:020000040000fa
:0402e8000a05000003
:020000040000fa
:0402ec000a050000ff
:020000040000fa
:0402f0000a050000fb
:020000040000fa
:0402f4000a050000f7
:020000040000fa
:0402f8000a050000f3
:020000040000fa
:0402fc000a050000ef
:020000040000fa
:040300000a050000ea
:020000040000fa
:040304000a050000e6
:020000040000fa
:040308000a050000e2
:020000040000fa
:04030c000a050000de
:020000040000fa
:040310000a050000da
:020000040000fa
:040314000a050000d6
:020000040000fa
:040318000a050000d2
:020000040000fa
:04031c000a050000ce
:020000040000fa
:040320000a050000ca
:020000040000fa
:040324000a050000c6
:020000040000fa
:040328000a050000c2
:020000040000fa
:04032c000a050000be
:020000040000fa
:040330000a050000ba
:020000040000fa
:040334000a050000b6
:020000040000fa
:040338000a050000b2
:020000040000fa
:04033c000a050000ae
:020000040000fa
:040340000a050000aa
:020000040000fa
:040344000a050000a6
:020000040000fa
:040348000a050000a2
:020000040000fa
:04034c000a0500009e
:020000040000fa
:040350000a0500009a
:020000040000fa
:040354000a05000096
:020000040000fa
:040358000a05000092
:020000040000fa
:04035c000a0500008e
:020000040000fa
:040360000a0500008a
:020000040000fa
:040364000a05000086
:020000040000fa
:100400004f8321000e7f22000e01880000000000b3
:10041000000020000000e000020032000001200087
:1004200020028800140007007c0107000000e000a3
:1004300003003a00a01e2100010020000200370046
:100440000000200001002000810f70000100320038
:1004500014000700000020000000e000020032004d
:1004600000000200000000002e1202000000000048
:100470000040da000000fe004440a9000010200007
:100480000000e0000300320000002000a00188000e
:100490004440a800000006008a1f78008b1f7800e7
:1004a0000000060091018800800478000000eb0045
:1004b0001a003700e284440032a0b4009905ba0063
:1004c000e284440032a0b4009906ba00e2844400f9
:1004d00032a0b4000006eb00476fde00fd07b2005b
:1004e000636ce10003003a00ebff07000000eb0043
:1004f0000a003700606ce10004003a00005deb0088
:100500008b05e900fdff3e00040037006168e10053
:10051000010032000086eb000b00070019c7ba008b
:100520001905ba000e04e00003003a000a00e000da
:10053000e0ff3a0000000600fe07b2009e018800be
:100540008a047800f5ff3700395dba008b05e900b1
:100550000c003200295dba008b05e900080032006a
:100560000c00e00003003a00e284440032a0b40032
:10057000f5ff370019ddba008b05e900faff3a00f4
:100580008904e800e184440032a0b40000000600c1
:100590003600f800809fbe00829fbe00849fbe0090
:1005a000869fbe003400f80000002000a0018800f3
:1005b0000000fa0010168000700060000000e000eb
:1005c00002003a008660a900180037000060fe00b3
:1005d000ccc2a800ca0607000004e0000c003200ec
:1005e000808020009040780070c7b30080cf50001a
:1005f00004003a00ccc2a900cce2a800c70607005c
:10060000030037008080200010407800ea010700d6
:10061000ccc2a900cce2a9000a21ef000621ef001c
:100620008500a90011e1a8008660a9000080fa00f9
:100630003400f9004f03be004f02be004f01be0060
:100640004f00be003600f900004006003600f800fa
:10065000809fbe00829fbe00849fbe00869fbe001a
:100660003400f80000002000a00188000200fa0019
:100670000060fe00cce2a800de03070000040700d3
:10068000004f78001e4078000004a2000004e00043
:1006900007003200cce2a900ccc2a8006704070022
:1006a0000a21ef000621ef008500a90011e1a80052
:1006b000ccc2a900cce2a9008560a9000080fa00a4
:1006c0003400f9004f03be004f02be004f01be00d0
:1006d0004f00be003600f900004006003600f8006a
:1006e000809fbe00829fbe00849fbe00869fbe008a
:1006f0003400f80000002000a00188000000fa008b
:100700000060fe00cce2a80006040700e0c0800004
:10071000e20f50000a003a009001210010407800da
:10072000f44f500006003a00a0012100104078006c
:10073000e14f400002003a001d04070003003700ab
:10074000cce2a900ccc2a8003c040700ccc2a9009e
:10075000cce2a9000a21ef000621ef008500a900e4
:1007600011e1a80087c0a9000080fa003400f90058
:100770004f03be004f02be004f01be004f00be003f
:100780003600f90000400600801f78003400f800b1
:1007900000002000a00188000200fa001011800073
:1007a00010118000620060000000e00007003200cd
:1007b00030118000004f780030118000004f780029
:1007c00030118000004f78002222a9008c20a9005f
:1007d0008560a9000080fa003400f9004f0078001d
:1007e00000400600801f78003400f8000000200060
:1007f000a00188000200fa00901180009011800092
:10080000620060000000e00007003200b0118000cc
:10081000004f7800b0118000004f7800b0118000c8
:10082000004f78003222a9008c40a90087c0a9009f
:100830000080fa003400f9004f0078000040060004
:10084000809fbe003400f80000002000a001880056
:100850000000fa0007c8bf000080fb00510a20001a
:10086000810f500036003200510a2000810f5000e5
:1008700004003c0071082000810f50000800320085
:1008800057003700310c2000810f50001800320053
:10089000110e2000810f50003d0032005000370043
:1008a00000c8bf00e34f50000d0036002082210039
:1008b000a1cab3000148780030822100a1cab30068
:1008c0000148780040822100a1cab30001487800a5
:1008d00050822100a1cab3000148780043003700cc
:1008e00000c8bf000040e80000e8b7003f00370044
:1008f00001c8bf00e34f50000d00360060822100a8
:10090000a1cab3000148780070822100a1cab300d7
:100910000148780080822100a1cab3000148780014
:1009200090822100a1cab300014878002f0037004f
:1009300001c8bf000040e80001e8b7002b00370005
:1009400002c8bf00e34f50000d003600a082210016
:10095000a1cab30001487800b0822100a1cab30047
:1009600001487800c0822100a1cab3000148780084
:10097000d0822100a1cab300014878001b003700d3
:1009800002c8bf000040e80002e8b70017003700c7
:1009900003c8bf00e34f50000d003600e082210085
:1009a000a1cab30001487800f0822100a1cab300b7
:1009b0000148780000832100a1cab30001487800f3
:1009c00010832100a1cab300014878000700370056
:1009d00003c8bf000040e80003e8b7000300370089
:1009e00070c8b30007e8b7000000000010c0b300f3
:1009f00006e8b7000a21ef000621ef008500a900f4
:100a000011e1a8000080fa003400f9004f00be0098
:100a1000004006000040da000000fe000000050073
:020000040000fa
:100a20000031000062530000c4f50000a6970000ea
:100a3000b9880000dbea00007d4c00001f2e00009a
:100a4000437200002110000087b60000e5d40000ca
:100a5000facb000098a900003e0f00005c6d00007a
:100a600086b70000e4d500004273000020110000aa
:100a70003f0e00005d6c0000fbca000099a800005a
:100a8000c5f40000a796000001300000635200008a
:100a90007c4d00001e2f0000b8890000daeb00003a
:100aa0003d0c00005f6e0000f9c800009baa00002a
:100ab00084b50000e6d7000040710000221300005a
:100ac0007e4f00001c2d0000ba8b0000d8e900000a
:100ad000c7f60000a594000003320000615000003a
:100ae000bb8a0000d9e800007f4e00001d2c0000ea
:100af0000233000060510000c6f70000a49500001a
:100b0000f8c900009aab00003c0d00005e6f0000c9
:100b1000417000002312000085b40000e7d60000f9
:100b20007a4b000018290000be8f0000dced0000a9
:100b3000c3f20000a19000000736000065540000d9
:100b4000390800005b6a0000fdcc00009fae000089
:100b500080b10000e2d300004475000026170000b9
:100b6000fccd00009eaf0000380900005a6b000069
:100b7000457400002716000081b00000e3d2000099
:100b8000bf8e0000ddec00007b4a00001928000049
:100b90000637000064550000c2f30000a091000079
:100ba000477600002514000083b20000e1d0000069
:100bb000fecf00009cad00003a0b00005869000019
:100bc0000435000066570000c0f10000a293000049
:100bd000bd8c0000dfee0000794800001b2a0000f9
:100be000c1f00000a3920000053400006756000029
:100bf000784900001a2b0000bc8d0000deef0000d9
:100c000082b30000e0d10000467700002415000008
:100c10003b0a000059680000ffce00009dac0000b8
:020000040000fa
:100c20000200fa00008221008040eb0001487800b9
:100c30002805070011822100804878000040eb0061
:100c4000004f7800060037009e80fb0020822100c4
:100c500000804000a1cab300014878001e4fe800a0
:100c60001e407800ef4f5000f7ff3600f487470032
:100c700074805700018221000900090031187800b2
:100c80004001b100e7010700f487570090c18800d8
:100c90000080fa00000006000000fa0006c8bf004d
:100ca0000004a2000004e0002c003a00ccc2a8001e
:100cb0000060fe000668ef0007c8bf000080fb0070
:100cc000510a2000810f500014003200510a200008
:100cd000810f500004003c0071082000810f50007b
:100ce0000800320013003700310c2000810f500043
:100cf00007003200110e2000810f50000a00320060
:100d00000c00370030ccb30007e8b7000c00370008
:100d100050cab30007e8b7000900370010ceb3008f
:100d200007e8b7000600370070c8b30007e8b7004f
:100d30000300370070c8b30007e8b70000000000e8
:100d4000090007000a21ef000621ef008500a90035
:100d500011e1a800ccc2a90001003700000000008a
:100d60000080fa00000006000000fa00c402a8009b
:100d7000c422a9007059200001002000a905070025
:100d80008701070007c8bf00fa00070050c5b3007d
:100d9000f800070007c8bf00f6000700c422a8003b
:100da000c402a900c0fd2600010020009d05070027
:100db0000080fa00000006000400fa0020479800b6
:100dc000ae40900070c8b30080cf50000b003200de
:100dd000ae40900030ccb30080cf5000070032000e
:100de000ae40900050cab30080cf500003003200e4
:100df0002e409000ff4f40007c003a003701070072
:100e0000004f78003501070010479800008221004c
:100e10008040eb0001487800ae04070011822100f9
:100e20008048780007c8bf000080fb00510a2000fe
:100e3000810f50003a003200510a2000810f50000b
:100e400004003c0071082000810f500008003200af
:100e50005f003700310c2000810f50001a00320073
:100e6000110e2000810f500043003200580037005f
:100e70008040eb001e4078007f01070021822100a6
:100e80008048780011c0b3001e4078007a01070046
:100e900031822100804878008040eb001e409000a5
:100ea00075010700418221008048780011c0b3001d
:100eb0001e40900070010700518221008048780098
:100ec0000068ef00420037008040eb001e407800d1
:100ed00069010700618221008048780011c0b300d9
:100ee0001e4078006401070071822100804878006c
:100ef0008040eb001e4090005f01070081822100ce
:100f00008048780011c0b3001e4090005a010700cd
:100f100091822100804878000168ef002c003700a2
:100f20008040eb001e40780053010700a1822100a1
:100f30008048780011c0b3001e4078004e010700c1
:100f4000b1822100804878008040eb001e40900074
:100f500049010700c18221008048780011c0b30018
:100f60001e40900044010700d18221008048780093
:100f70000268ef00160037008040eb001e4078004a
:100f80003d010700e18221008048780011c0b300d4
:100f90001e40780038010700f18221008048780067
:100fa0008040eb001e4090003301070001832100c8
:100fb0008048780011c0b3001e4090002e01070049
:100fc00011832100804878000368ef0000000000d2
:100fd00010c0b30006e8b7000a21ef000621ef00b9
:100fe0008500a90011e1a800010037000000000001
:100ff0000080fa00000006000a00fa00881f78004e
:101000002007980031079800420798004e40900052
:10101000104798005e409000204798006e40900076
:10102000304798004e0490000e00e8003100200088
:101030009b040700800f540029003a00f487470002
:1010400074805700018221000900090031187800de
:101050004001b100f3000700f487570090c18800f9
:101060002002a800cde2a8000082210010407800f4
:101070001f00070010822100104078001c000700ac
:101080000040eb00004f7800070037001e80fb0097
:101090008080e8000082210000804000104078003d
:1010a000130007001e4fe8001e407800ef4f50006d
:1010b000f6ff360090c18000190007000000000014
:1010c0001111800000102000008060000000e0008e
:1010d000fbff3200cde2a9002002a9000100370089
:1010e000000000004f0478000080fa0000000600b5
:1010f0000200fa00004f78001e80fb0020118800db
:10110000000000001111800000202000008060001d
:101110000000e000fbff3a000080fa00000006003b
:101120000200fa00000f78001e0078004800de0080
:101130002011880000000000111180000020200014
:10114000008060000000e000fbff3a009e00780095
:1011500021118800000000001111800000202000f3
:10116000008060000000e000fbff3a000080fa0011
:10117000000006000400fa0020479800cd42a900b4
:101180000000000051168000000021000080600077
:101190000000e000fbff3a00cd22a900b02c2000a7
:1011a000010020009f040700cd42a800b02c2000c1
:1011b000010020009b040700cd42a90000000000b0
:1011c0005116800000002100008060000000e00057
:1011d000fbff3a000040eb00004f78001c00370096
:1011e0002e4090008080fb001e80fb000088de0007
:1011f00000407800614060000080fb0061006000fa
:101200004900dd00611680000190a100010070001e
:1012100060168800b02c2000010020008104070027
:10122000cd42a800b02c2000010020007d04070062
:10123000cd42a900000000005116800000002100ee
:10124000008060000000e000fbff3a001e4fe80055
:101250001e407800e74f5000e1ff3600cd22a80085
:10126000b02c2000010020006e040700cd42a80031
:10127000b02c2000010020006a040700cd42a90024
:101280000000000051168000000021000080600076
:101290000000e000fbff3a00cd22a800b02c2000a7
:1012a000010020005f040700cd42a800b02c200000
:1012b000010020005b040700cd42a90000000000ef
:1012c0005116800000002100008060000000e00056
:1012d000fbff3a000080fa00000006000200fa005e
:1012e0000040eb00004f7800cd42a9000000000054
:1012f0005116800000002100008060000000e00026
:10130000fbff3a000040eb00104798001600370042
:10131000b02c20000100200042040700cd42a800ac
:10132000501680004800de00614060008080fb00b5
:101330001e4090000080fb000008dd008040780027
:101340001e40780000c07000004f7800b02c2000d4
:101350000100200033040700cd42a9001e40900088
:101360000040e800104798001e409000e74f5000f2
:10137000e7ff3600b02c2000010020002904070000
:10138000cd42a800b02c2000010020002504070059
:10139000cd42a9001e4078000080fa00000006003f
:1013a0000200fa00cd42a9000000000051168000a2
:1013b00000002100008060000000e000fbff3a0018
:1013c0000000eb00000f780010003700cd22a800cd
:1013d000b02c20000100200012040700cd42a8001c
:1013e000b02c2000010020000e040700cd42a9000f
:1013f0000000000051168000000021000080600005
:101400000000e000fbff3a001e0fe8007002200021
:101410009e007800808f5000ecff36000080fa00bc
:10142000000006001400fa000040eb00004f7800b6
:10143000090037001e80fb009e80fb008180e800d1
:101440006601570081004100c1e897000000470095
:10145000114098001e4fe8001e407800ef4f5000ea
:10146000f4ff36000e00e800010120008c030700a5
:101470000080fa00000006000400fa0020479800ef
:1014800031479800a0cab300004f78003e4090005a
:10149000e14f500029003a002e4090000080fb00f0
:1014a00061006000004078000004e00003003200aa
:1014b000f1c3b3001ecf60000200370000ccb300c0
:1014c0001e4f70002e4090000080fb006200600004
:1014d0000000e00003003200f0ccb3001e4f6000bb
:1014e0000200370000c3b3001e4f70002e40900072
:1014f0000080fb00640060000000e0000300320098
:1015000030cfb3001e4f6000020037009e407800cd
:101510006ccf70002e4090000080fb0068006000df
:101520000000e00003003200c0cfb3001e4f600097
:10153000020037009e40780063cf70003e4090006c
:101540000004e00028003a002e4090000080fb00dc
:10155000700060000000e00003003200f1c3b3003f
:101560001ecf60000200370000ccb3001e4f700099
:101570002e4090008080fb00000220000080600070
:101580000000e00003003200f0ccb3001e4f60000a
:101590000200370000c3b3001e4f70002e409000c1
:1015a0008080fb0000042000008060000000e0005c
:1015b0000300320030cfb3001e4f6000020037003e
:1015c0009e4078006ccf70002e4090000004e00038
:1015d00003003d00c0cfb3001e4f60000200370083
:1015e0009e40780063cf70001e4078000080fa00b3
:1015f000000006000000fa0090012100d0c0880021
:101600000000eb00f0c088000000eb00e0c08800a4
:101610008460a9000021ef0005e1a8000f00370059
:1016200010118000610060000000e0000b0032003b
:10163000d0c08000311180008140780001487800de
:10164000d0c080000000e800d0c08800e0c080006a
:101650000000e800e0c088000021ef0020048000c6
:10166000680060000000e000edff32008460a90027
:101670000021ef0005e1a9000080fa00000006004b
:101680000800fa0093020700004f78009001210043
:101690001040780020479800a001210010407800f9
:1016a00030479800b0012100104078004047980072
:1016b000c0012100104078000080fb003007980036
:1016c0003e009000c800dd00d001210010407800ed
:1016d0000080fb0001007000300798002e40900051
:1016e0000004e0000c003a003e4090009e4f500085
:1016f00009003a004e409000f94f400006003a00c1
:101700001e009000ae0090003e0190003afe0700df
:1017100010c0b300010037000040eb000080fa0069
:10172000000006000000fa0090012100d0c08800ef
:101730000000eb00f0c088000000eb00e0c0880073
:101740008460a9000021ef0005e1a8000f00370028
:1017500090118000610060000000e0000b0032008a
:10176000d0c08000b111800081407800014878002d
:10177000d0c080000000e800d0c08800e0c0800039
:101780000000e800e0c088000021ef002004800095
:10179000680060000000e000edff32008460a900f6
:1017a0000021ef0005e1a9000080fa00000006001a
:1017b0000000fa0090012100b1ceb300014878008a
:1017c00044020700a1012100804878002000200089
:1017d000e0c0880090012100d0c08800e0c08000f7
:1017e000f0c0880010003700d0c0800010407800a2
:1017f0000080fb00a0118800d0c080000000e8003d
:10180000d0c08800f0c080000000e900f0c088006f
:101810000000000091118000002020000080600086
:101820000000e000fbff3a00f0c080000000e00094
:10183000edff3a000080fa00000006000400fa0004
:10184000c402a800c422a900705920000100200091
:10185000f40207008800070070c7b3001047980023
:10186000e0c080004800de0000407800204798007b
:10187000e0c0800000407800304798000e00e8008b
:1018800031002000b4020700004f78001e40900095
:101890001f0007002e4090001d0007003e409000f2
:1018a0001b0007001e40780019000700900121006e
:1018b000d0c088000000eb00f0c0880009003700ad
:1018c000d0c080001040780011000700d0c0800018
:1018d0000000e800d0c08800f0c080000000e800f0
:1018e000f0c08800f1c08000e0c08000808f500010
:1018f000f3ff3900c422a800c402a900c0fd2600dd
:1019000001002000c70207000080fa000000060066
:101910000400fa0020479800cd42a9000000000012
:101920005116800000002100008060000000e000ef
:10193000fbff3a00cd22a900b02c200001002000be
:10194000b8020700cd42a800b02c20000100200002
:10195000b4020700cd42a90000000000511680002b
:1019600000002100008060000000e000fbff3a0062
:101970000040eb00004f78001c0037002e40900024
:101980008080fb001e80fb000088de0000407800a5
:10199000614060000080fb00610060004900dd00e4
:1019a000611680000190a10001007000601688009f
:1019b000b02c2000010020009a020700cd42a800b0
:1019c000b02c20000100200096020700cd42a900a3
:1019d000000000005116800000002100008060001f
:1019e0000000e000fbff3a001e4fe8001e407800b8
:1019f000e74f5000e1ff3600cd22a900b02c2000b7
:101a00000100200087020700cd42a800b02c200072
:101a10000100200083020700cd42a9000000000061
:101a20005116800000002100008060000000e000ee
:101a3000fbff3a00cd22a800b02c200001002000be
:101a400078020700cd42a800b02c20000100200041
:101a500074020700cd42a90000000000511680006a
:101a600000002100008060000000e000fbff3a0061
:101a70000080fa00000006000200fa00cd42a90032
:101a8000000000005116800000002100008060006e
:101a90000000e000fbff3a00cd22a800b02c20009f
:101aa000010020005f020700cd42a800b02c2000fa
:101ab000010020005b020700cd42a90000000000e9
:101ac0005116800000002100008060000000e0004e
:101ad000fbff3a000000eb00000f78001000370019
:101ae000cd22a800b02c2000010020004d020700ec
:101af000cd42a800b02c20000100200049020700c0
:101b0000cd42a90000000000511680000000210015
:101b1000008060000000e000fbff3a001e0fe800bc
:101b2000200220009e007800808f5000ecff3600dd
:101b3000cd22a800b02c20000100200039020700af
:101b4000cd42a800b02c2000010020003502070083
:101b5000cd42a900000000005116800000002100c5
:101b6000008060000000e000fbff3a00cd22a800ea
:101b7000b02c2000010020002a020700cd42a8005e
:101b8000b02c20000100200026020700cd42a90051
:101b9000000000005116800000002100008060005d
:101ba0000000e000fbff3a000080fa0000000600a1
:101bb0000000fa000f00070023000700c60007001e
:101bc0004b000700760007009c000700df000700bd
:101bd00013fc0700c422a800c402a900c0fd26000f
:101be000010020000f020700cde2a9000080fa00ea
:101bf000000006000000fa00e0032000303a8800f0
:101c0000213a800000fe2f0000806000203a88000a
:101c1000213a8000000c200001007000203a88006a
:101c20004827ef0040a7a90000000000113a8000fb
:101c300000022000008060000000e000fbff320096
:101c40000080fa00000006000000fa00103a800050
:101c5000000178000260a1006004200071052000ee
:101c600023742000804978008149780082497800f7
:101c70002135800000fe2f00008060000010a000d1
:101c80002035880011368000f00f2e008080600023
:101c900000302000010070001036880031358000cf
:101ca00000fe2f0000806000d000b30030358800b7
:101cb0007136800000fe2f00008060005000b300ed
:101cc00070368800103a8000000178000260a000a1
:101cd00060042000710520002374200080497800f2
:101ce00081497800824978000080fa0000000600ef
:101cf0000200fa0070c0b300004f7800cd42a90086
:101d0000cc82a800cc82a900cc82a8000468ef0095
:101d100004c8bf0080407800501680004500de00f7
:101d2000614060000081fb001e00fb000010dd0030
:101d30000040780000c0700004e8b70060c0b30045
:101d4000004f78000e003700cd42a800cd42a90018
:101d500004c8bf0080407800501680004500de00b7
:101d6000614060000081fb001e00fb000010dd00f0
:101d70000040780000c0700004e8b7001e4fe90082
:101d80001e4078000004e000efff3d0004c8bf00e3
:101d900000c0ea0004e8b7000080fa000000060076
:101da0000000fa00d00007000080fb00e10f5000a7
:101db0000d003200e10f500003003c000000e00085
:101dc0000600320011003700e20f50000900320017
:101dd000e30f50000a0032000c003700c00520005d
:101de0004011880009003700d0022000401188000f
:101df00006003700e0012000401188000300370092
:101e0000e000200040118800000000002022ef00c8
:101e10002062a8002002a9002222ef0011118000f8
:101e2000f0f32f00008060001011880021e2a8006c
:101e30002342a8000080fa00000006000000fa001b
:101e4000a90007000080fb00e10f50000d003200e8
:101e5000e10f500003003c000000e00006003200eb
:101e600011003700e20f500009003200e30f50006c
:101e70000a0032000c003700c0052000c0118800a5
:101e800009003700d0022000c0118800060037008a
:101e9000e0012000c011880003003700e0002000ae
:101ea000c0118800000000003022ef003062a8005e
:101eb0003002a9003222ef0091118000f0f32f00d0
:101ec000008060009011880031e2a8003342a80031
:101ed0000080fa00000006000000fa000080eb001d
:101ee00060198800c422a800c402a900cd22a8005d
:101ef000cdc2a800cc62a800cde2a900c002a90012
:101f0000c022a900c082a800c842a800c862a900d7
:101f1000c882a900c8a2a800c8c2a900c8e2a90036
:101f2000c902a800c922a900c942a900c962a90022
:101f3000c982a800c9a2a800c9c2a900c9e2a90013
:101f4000cd62a8000080fa00000006000000fa0040
:101f5000650007000080fb00e10f50000d0032001b
:101f6000e10f500003003c000000e00006003200da
:101f700011003700e20f500009003200e30f50005b
:101f80000a0032000c003700d074210010088800cd
:101f90000900370060ba20001008880006003700ea
:101fa000407c20001008880003003700203e2000fd
:101fb000100888000000000013e1a90011e1a90049
:101fc0001061a8001021a90010c1a900810880009b
:101fd000f0fc2f0000806000800888000a21ef00dc
:101fe0000621ef0020072000700888000c21ef0078
:101ff0000080fa00000006000000fa0021068000c0
:1020000000072000010070002006880021068000e3
:10201000007020000100700020068800410580004b
:10202000f0ff2800808060000000260001007000a2
:102030004005880091058000f08f2f0080806000af
:10204000006020000100700090058800610580009c
:10205000f0ff280080806000000025000100700073
:10206000600588004105800080ff2f00008060002f
:102070000020a000400588008c20a9008c40a90009
:102080008660a9008560a90087c0a9008500a90015
:102090009500a80011e1a8006000a8009660a800c3
:1020a0009560a80097c0a8009c20a8009c40a800ac
:1020b0000080fa00000006000000fa009560a90008
:1020c00097c0a9006000a9009660a9000080fa00ee
:1020d000000006000000fa0020408000f043b2003b
:1020e0000080fa00000006000000fa002040800096
:1020f0004600de00634060000080fa000000060039
:102100000400fa003500070070c8b3002afb07007e
:102110000040eb000080fa00000006000000fa001a
:102120002002a8003002a800cde2a800d080200044
:1021300070808800808080009080880019003700bf
:1021400070808000104078000080fb00a0118800a3
:1021500070808000104078000080fb002011880013
:10216000708080000000e80070808800908080000f
:102170000000e9009080880000000000111180003c
:1021800000202000008060000000e000fbff3a001b
:102190009111800000202000008060000000e0001d
:1021a000f6ff3a00908080000000e000e4ff3a0073
:1021b000000000001111800000102000008060006d
:1021c0000000e000fbff3200cde2a9002002a900e0
:1021d0003002a9000080fa00000006000200fa00a8
:1021e0000040eb00004f7800cd42a9000000000045
:1021f0005116800000002100008060000000e00017
:10220000fbff3a000040eb00104798001600370033
:10221000b02c20000100200082000700cd42a80061
:10222000501680004800de00614060008080fb00a6
:102230001e4090000080fb000008dd008040780018
:102240001e40780000c07000004f7800b02c2000c5
:102250000100200073000700cd42a9001e4090003d
:102260000040e800104798001e409000e74f5000e3
:10227000e7ff3600b02c20000100200069000700b5
:10228000cd42a800b02c200001002000650007000e
:10229000cd42a9001e4078000080fa000000060030
:1022a0000a00fa0030079800410798000000eb0090
:1022b000000f7800ce009000110798002000370032
:1022c0003e009000104078000080fb004800dd00d8
:1022d0001e0f68003e0090000000e80030079800e4
:1022e0000000eb00200798000f0037001e00780068
:1022f0000000e00006003d001e00780000004000e5
:102300008000780050002800008f6800030037002c
:102310001e00780000004000000f78002e009000a2
:102320000000e800200798002e009000e70f500002
:10233000eeff34001e0090000000e9001007980036
:102340001e0090000000e000ddff3a001e00780053
:102350000080fa00000006000800fa00200798003c
:1023600031079800ae009000010f780000c0eb002c
:1023700020479800090037001e0078009040780040
:102380002e40900000c068000080fb000151280032
:1023900061417800224798001e0fe8003e0090003f
:1023a00000f0a7000000ea000000ea004f00de0095
:1023b00000407800be0090008100e90031079800dd
:1023c0000004e000ecff3a002e4090000080fa008c
:0423d0000000060003
:020000040000fa
:1023d40004080000020000000000000008080000db
:1023e4000c08000000000000141000000c0800009d
:1023f400000000002018000014000000000000008d
:10240400060800000200000002000000018700002e
:1024140000080000040000000000000000000000ac
:020000040000fa
:10242400f03fb1000180b10006003500ee03090061
:1024340000000000403fb1000180b100fbff3d00ff
:102444001000b000203fb0000200350000800900f9
:0824540000000000000006007a
:020000040000fa
:10245c000000fa00d3fd0700e4fe0700c422a80028
:10246c00c402a900c0fd260001002000eaff0700fd
:10247c0040212b00b1022000e7ff070003fa070000
:04248c00fbff37001b
:020000040000fa
:0200000401f009
:04000000ffff0000fe
:020000040000fa
:0200000401f009
:04000400ffff0000fa
:020000040000fa
:0200000401f009
:04000800ffff0000f6
:020000040000fa
:0200000401f009
:04000c00830000006d
:020000040000fa
:0200000401f009
:04001000a500000047
:020000040000fa
:0200000401f009
:04001400cc0000001c
:020000040000fa
:0200000401f009
:04001800f7000000ed
:020000040000fa
:0200000401f009
:04001c00dfff000002
:00000001FF
