:020000040000fa
:080000000002040000000000f2
:020000040000fa
:04000800f4040000fc
:020000040000fa
:04000c00f4040000f8
:020000040000fa
:04001000f4040000f4
:020000040000fa
:04001400f4040000f0
:020000040000fa
:04001800f4040000ec
:020000040000fa
:04001c00f4040000e8
:020000040000fa
:04002000f4040000e4
:020000040000fa
:04002400f4040000e0
:020000040000fa
:04002800f4040000dc
:020000040000fa
:04002c00f4040000d8
:020000040000fa
:04003000f4040000d4
:020000040000fa
:04003400f4040000d0
:020000040000fa
:04003800f4040000cc
:020000040000fa
:04003c00f4040000c8
:020000040000fa
:04004000f4040000c4
:020000040000fa
:04004400f4040000c0
:020000040000fa
:040048000a040000a6
:020000040000fa
:04004c00f4040000b8
:020000040000fa
:04005000f4040000b4
:020000040000fa
:04005400c8020000de
:020000040000fa
:04005800f4040000ac
:020000040000fa
:04005c00f4040000a8
:020000040000fa
:04006000f4040000a4
:020000040000fa
:04006400f4040000a0
:020000040000fa
:04006800f40400009c
:020000040000fa
:04006c00f404000098
:020000040000fa
:04007000f404000094
:020000040000fa
:04007400c2030000c3
:020000040000fa
:04007800f40400008c
:020000040000fa
:04007c00f404000088
:020000040000fa
:04008000f404000084
:020000040000fa
:04008400f404000080
:020000040000fa
:04008800f40400007c
:020000040000fa
:04008c00f404000078
:020000040000fa
:04009000f404000074
:020000040000fa
:04009400f404000070
:020000040000fa
:04009800f40400006c
:020000040000fa
:04009c00f404000068
:020000040000fa
:0400a0001003000049
:020000040000fa
:0400a400f404000060
:020000040000fa
:0400a800f40400005c
:020000040000fa
:0400ac00f404000058
:020000040000fa
:0400b000f404000054
:020000040000fa
:0400b400f404000050
:020000040000fa
:0400b800f40400004c
:020000040000fa
:0400bc00f404000048
:020000040000fa
:0400c000f404000044
:020000040000fa
:0400c400f404000040
:020000040000fa
:0400c800f40400003c
:020000040000fa
:0400cc00f404000038
:020000040000fa
:0400d000f404000034
:020000040000fa
:0400d400f404000030
:020000040000fa
:0400d800f40400002c
:020000040000fa
:0400dc00f404000028
:020000040000fa
:0400e000f404000024
:020000040000fa
:0400e400f404000020
:020000040000fa
:0400e800f40400001c
:020000040000fa
:0400ec00f404000018
:020000040000fa
:0400f000f404000014
:020000040000fa
:0400f400f404000010
:020000040000fa
:0400f800f40400000c
:020000040000fa
:0400fc00f404000008
:020000040000fa
:04010000f404000003
:020000040000fa
:04010400f4040000ff
:020000040000fa
:04010800f4040000fb
:020000040000fa
:04010c00f4040000f7
:020000040000fa
:04011000f4040000f3
:020000040000fa
:04011400f4040000ef
:020000040000fa
:04011800f4040000eb
:020000040000fa
:04011c00f4040000e7
:020000040000fa
:04012000f4040000e3
:020000040000fa
:04012400f4040000df
:020000040000fa
:04012800f4040000db
:020000040000fa
:04012c006603000066
:020000040000fa
:040130009403000034
:020000040000fa
:04013400f4040000cf
:020000040000fa
:04013800f4040000cb
:020000040000fa
:04013c00f4040000c7
:020000040000fa
:04014000f4040000c3
:020000040000fa
:04014400f4040000bf
:020000040000fa
:04014800f4040000bb
:020000040000fa
:04014c00f4040000b7
:020000040000fa
:04015000f4040000b3
:020000040000fa
:04015400f4040000af
:020000040000fa
:04015800f4040000ab
:020000040000fa
:04015c00f4040000a7
:020000040000fa
:04016000f4040000a3
:020000040000fa
:04016400f40400009f
:020000040000fa
:04020800f4040000fa
:020000040000fa
:04020c00f4040000f6
:020000040000fa
:04021000f4040000f2
:020000040000fa
:04021400f4040000ee
:020000040000fa
:04021800f4040000ea
:020000040000fa
:04021c00f4040000e6
:020000040000fa
:04022000f4040000e2
:020000040000fa
:04022400f4040000de
:020000040000fa
:04022800f4040000da
:020000040000fa
:04022c00f4040000d6
:020000040000fa
:04023000f4040000d2
:020000040000fa
:04023400f4040000ce
:020000040000fa
:04023800f4040000ca
:020000040000fa
:04023c00f4040000c6
:020000040000fa
:04024000f4040000c2
:020000040000fa
:04024400f4040000be
:020000040000fa
:04024800f4040000ba
:020000040000fa
:04024c00f4040000b6
:020000040000fa
:04025000f4040000b2
:020000040000fa
:04025400f4040000ae
:020000040000fa
:04025800f4040000aa
:020000040000fa
:04025c00f4040000a6
:020000040000fa
:04026000f4040000a2
:020000040000fa
:04026400f40400009e
:020000040000fa
:04026800f40400009a
:020000040000fa
:04026c00f404000096
:020000040000fa
:04027000f404000092
:020000040000fa
:04027400f40400008e
:020000040000fa
:04027800f40400008a
:020000040000fa
:04027c00f404000086
:020000040000fa
:04028000f404000082
:020000040000fa
:04028400f40400007e
:020000040000fa
:04028800f40400007a
:020000040000fa
:04028c00f404000076
:020000040000fa
:04029000f404000072
:020000040000fa
:04029400f40400006e
:020000040000fa
:04029800f40400006a
:020000040000fa
:04029c00f404000066
:020000040000fa
:0402a000f404000062
:020000040000fa
:0402a400f40400005e
:020000040000fa
:0402a800f40400005a
:020000040000fa
:0402ac00f404000056
:020000040000fa
:0402b000f404000052
:020000040000fa
:0402b400f40400004e
:020000040000fa
:0402b800f40400004a
:020000040000fa
:0402bc00f404000046
:020000040000fa
:0402c000f404000042
:020000040000fa
:0402c400f40400003e
:020000040000fa
:0402c800f40400003a
:020000040000fa
:0402cc00f404000036
:020000040000fa
:0402d000f404000032
:020000040000fa
:0402d400f40400002e
:020000040000fa
:0402d800f40400002a
:020000040000fa
:0402dc00f404000026
:020000040000fa
:0402e000f404000022
:020000040000fa
:0402e400f40400001e
:020000040000fa
:0402e800f40400001a
:020000040000fa
:0402ec00f404000016
:020000040000fa
:0402f000f404000012
:020000040000fa
:0402f400f40400000e
:020000040000fa
:0402f800f40400000a
:020000040000fa
:0402fc00f404000006
:020000040000fa
:04030000f404000001
:020000040000fa
:04030400f4040000fd
:020000040000fa
:04030800f4040000f9
:020000040000fa
:04030c00f4040000f5
:020000040000fa
:04031000f4040000f1
:020000040000fa
:04031400f4040000ed
:020000040000fa
:04031800f4040000e9
:020000040000fa
:04031c00f4040000e5
:020000040000fa
:04032000f4040000e1
:020000040000fa
:04032400f4040000dd
:020000040000fa
:04032800f4040000d9
:020000040000fa
:04032c00f4040000d5
:020000040000fa
:04033000f4040000d1
:020000040000fa
:04033400f4040000cd
:020000040000fa
:04033800f4040000c9
:020000040000fa
:04033c00f4040000c5
:020000040000fa
:04034000f4040000c1
:020000040000fa
:04034400f4040000bd
:020000040000fa
:04034800f4040000b9
:020000040000fa
:04034c00f4040000b5
:020000040000fa
:04035000f4040000b1
:020000040000fa
:04035400f4040000ad
:020000040000fa
:04035800f4040000a9
:020000040000fa
:04035c00f4040000a5
:020000040000fa
:04036000f4040000a1
:020000040000fa
:04036400f40400009d
:020000040000fa
:10040000af8421000e7f22000e0188000000000052
:10041000000020000000e000020032000001200087
:100420002002880014000700710107000000e000ae
:1004300003003a00802a210001002000020037005a
:100440000000200001002000810f70000100320038
:1004500014000700000020000000e000020032004d
:100460000000020000000000ec120200000000008a
:100470000040da000000fe004440a9000010200007
:100480000000e0000300320000002000a00188000e
:100490004440a800000006008a1f78008b1f7800e7
:1004a0000000060091018800800478000000eb0045
:1004b0001a003700e284440032a0b4009905ba0063
:1004c000e284440032a0b4009906ba00e2844400f9
:1004d00032a0b4000006eb00476fde00fd07b2005b
:1004e000636ce10003003a00ebff07000000eb0043
:1004f0000a003700606ce10004003a00005deb0088
:100500008b05e900fdff3e00040037006168e10053
:10051000010032000086eb000b00070019c7ba008b
:100520001905ba000e04e00003003a000a00e000da
:10053000e0ff3a0000000600fe07b2009e018800be
:100540008a047800f5ff3700395dba008b05e900b1
:100550000c003200295dba008b05e900080032006a
:100560000c00e00003003a00e284440032a0b40032
:10057000f5ff370019ddba008b05e900faff3a00f4
:100580008904e800e184440032a0b40000000600c1
:100590003600f800809fbe00829fbe00849fbe0090
:1005a000869fbe003400f80000002000a0018800f3
:1005b0000200fa000060fe00cce2a800550407002b
:1005c00077040700004f78001e4078000004a20066
:1005d0000004e00007003200cce2a900ccc2a80071
:1005e000fc0407000a21ef000621ef008500a900a6
:1005f00011e1a800ccc2a900cce2a9008560a90045
:100600000080fa003400f9004f03be004f02be0024
:100610004f01be004f00be003600f900004006004a
:100620003600f800809fbe00829fbe00849fbe00ff
:10063000869fbe003400f80000002000a001880062
:100640000000fa000060fe00cce2a8009b04070056
:1006500080808000e20f50000a003a00d080200025
:1006600010407800f44f500006003a00e08020006f
:1006700010407800e14f400002003a00b204070049
:1006800003003700cce2a900ccc2a800d1040700c7
:10069000ccc2a900cce2a9000a21ef000621ef009c
:1006a0008500a90011e1a80087c0a9000080fa0018
:1006b0003400f9004f03be004f02be004f01be00e0
:1006c0004f00be003600f90000400600801f780091
:1006d0003400f80000002000a00188000200fa00a9
:1006e0001011800010118000620060000000e00026
:1006f0000700320030118000004f78003011800078
:10070000004f780030118000004f78002222a900ad
:100710008c20a9008560a9000080fa003400f9004f
:100720004f00780000400600801f78003400f80079
:1007300000002000a00188000200fa009011800053
:1007400090118000620060000000e00007003200ad
:10075000b0118000004f7800b0118000004f780089
:10076000b0118000004f78003222a9008c40a9000f
:1007700087c0a9000080fa003400f9004f0078001b
:10078000004006003600f800809fbe00829fbe0039
:10079000849fbe00869fbe003400f8000000200049
:1007a000a00188000200fa001016800070006000ae
:1007b0000000e00002003a008660a9000d0037004a
:1007c0000060fe00ccc2a800e3060700004f7800de
:1007d0001e40780090010700ccc2a900cce2a9001d
:1007e0000a21ef000621ef008500a90011e1a80011
:1007f0008660a9000080fa003400f9004f03be00b3
:100800004f02be004f01be004f00be003600f9008f
:1008100000400600809fbe003400f8000000200069
:10082000a00188000000fa0007c8bf000080fb009c
:10083000510a2000810f500036003200510a20007a
:10084000810f500004003c0071082000810f50000f
:100850000800320057003700310c2000810f500093
:1008600018003200110e2000810f50003d003200b0
:100870005000370000c8bf00e34f50000d003600a5
:100880000083210051c5b300014878001083210086
:1008900051c5b300014878002083210051c5b30041
:1008a000014878003083210051c5b3000148780029
:1008b0004300370000c8bf000040e80000e8b70070
:1008c0003f00370001c8bf00e34f50000d00360065
:1008d0004083210051c5b3000148780050832100b6
:1008e00051c5b300014878006083210051c5b300b1
:1008f000014878007083210051c5b3000148780099
:100900002f00370001c8bf000040e80001e8b70031
:100910002b00370002c8bf00e34f50000d00360027
:10092000e083210051c5b30001487800f083210025
:1009300051c5b300014878000084210051c5b300bf
:10094000014878001084210051c5b30001487800a7
:100950001b00370002c8bf000040e80002e8b700f3
:100960001700370003c8bf00e34f50000d003600ea
:100970002084210051c5b300014878003084210053
:1009800051c5b300014878004084210051c5b3002f
:10099000014878005084210051c5b3000148780017
:1009a0000700370003c8bf000040e80003e8b700b5
:1009b0000300370070c8b30007e8b700000000006c
:1009c00010c0b30006e8b7000a21ef000621ef00cf
:1009d0008500a90011e1a8000080fa003400f900a8
:1009e0004f00be00004006000040da000000fe009c
:0409f00000000500fe
:020000040000fa
:1009f4000031000062530000c4f50000a697000017
:100a0400b9880000dbea00007d4c00001f2e0000c6
:100a1400437200002110000087b60000e5d40000f6
:100a2400facb000098a900003e0f00005c6d0000a6
:100a340086b70000e4d500004273000020110000d6
:100a44003f0e00005d6c0000fbca000099a8000086
:100a5400c5f40000a79600000130000063520000b6
:100a64007c4d00001e2f0000b8890000daeb000066
:100a74003d0c00005f6e0000f9c800009baa000056
:100a840084b50000e6d70000407100002213000086
:100a94007e4f00001c2d0000ba8b0000d8e9000036
:100aa400c7f60000a5940000033200006150000066
:100ab400bb8a0000d9e800007f4e00001d2c000016
:100ac4000233000060510000c6f70000a495000046
:100ad400f8c900009aab00003c0d00005e6f0000f6
:100ae400417000002312000085b40000e7d6000026
:100af4007a4b000018290000be8f0000dced0000d6
:100b0400c3f20000a1900000073600006554000005
:100b1400390800005b6a0000fdcc00009fae0000b5
:100b240080b10000e2d300004475000026170000e5
:100b3400fccd00009eaf0000380900005a6b000095
:100b4400457400002716000081b00000e3d20000c5
:100b5400bf8e0000ddec00007b4a00001928000075
:100b64000637000064550000c2f30000a0910000a5
:100b7400477600002514000083b20000e1d0000095
:100b8400fecf00009cad00003a0b00005869000045
:100b94000435000066570000c0f10000a293000075
:100ba400bd8c0000dfee0000794800001b2a000025
:100bb400c1f00000a3920000053400006756000055
:100bc400784900001a2b0000bc8d0000deef000005
:100bd40082b30000e0d10000467700002415000035
:100be4003b0a000059680000ffce00009dac0000e5
:020000040000fa
:100bf4000200fa0030ccb30007e8b700e08221001d
:100c04008040eb000148780097050700f18221003d
:100c1400804878000040eb00004f78000600370061
:100c24009e80fb00008321000080400051c5b3007a
:100c3400014878001e4fe8001e407800e74f50003e
:100c4400f7ff3600808321008040eb0001487800e4
:100c540070c1800081c1800092c18000a3c1800066
:100c6400b4c18000c5c18000d6c18000270207003e
:100c7400d0c18800c08321008040eb000148780087
:100c840079050700d1832100804878000040eb00fb
:100c9400004f7800060037009e80fb00e0832100af
:100ca4000080400051c5b300014878001e4fe800a1
:100cb4001e407800e74f5000f7ff360060842100a3
:100cc4008040eb0001487800e0c18000f1c1800061
:100cd40002c2800013c2800024c2800035c280009a
:100ce40046c280000902070040c288000080fa0062
:100cf400000006000000fa0006c8bf000004a200bd
:100d04000004e0002c003a00ccc2a8000060fe0001
:100d14000668ef0007c8bf000080fb00510a2000ee
:100d2400810f500014003200510a2000810f50003e
:100d340004003c0071082000810f500008003200bc
:100d440013003700310c2000810f500007003200df
:100d5400110e2000810f50000a0032000c003700f1
:100d640030ccb30007e8b7000c00370050cab3001a
:100d740007e8b7000900370010ceb30007e8b70052
:100d84000600370070c8b30007e8b7000300370057
:100d940070c8b30007e8b7000000000009000700ae
:100da4000a21ef000621ef008500a90011e1a80047
:100db400ccc2a90001003700000000000080fa0046
:100dc400000006000000fa00c402a800c422a90022
:100dd4007059200001002000f0050700aa01070057
:100de40007c8bf001d01070050c5b3001b01070061
:100df40007c8bf0019010700c422a800c402a90043
:100e0400c0fd260001002000e40507000080fa0070
:100e1400000006000400fa0020479800ae4090004d
:100e240000ceb30080cf50000a0032002e40900064
:100e3400f04f40000700320007c8bf00ae409000ea
:100e440080cf5000030032005e0107005d010700ff
:100e54008300370000000000000000005901070073
:100e6400004f78005701070010479800e0822100e6
:100e74008040eb0001487800fb040700f182210068
:100e840080487800c08321008040eb00014878004e
:100e9400f5040700d18321008048780007c8bf000b
:100ea4000080fb00510a2000810f50003a003200fc
:100eb400510a2000810f500004003c0071082000fa
:100ec400810f5000080032005f003700310c200011
:100ed400810f50001a003200110e2000810f5000c3
:100ee40043003200580037008040eb001e40780079
:100ef400a8010700018321008048780011c0b300d5
:100f04001e407800a3010700118321008048780067
:100f14008040eb001e4090009e01070021832100c9
:100f24008048780011c0b3001e409000990107006a
:100f340031832100804878000068ef0042003700c8
:100f44008040eb001e40780092010700418321009d
:100f54008048780011c0b3001e4078008d0107005e
:100f640051832100804878008040eb001e409000af
:100f740088010700618321008048780011c0b30014
:100f84001e4090008301070071832100804878008f
:100f94000168ef002c0037008040eb001e40780011
:100fa4007c010700e18321008048780011c0b30070
:100fb4001e40780077010700f18321008048780003
:100fc4008040eb001e409000720107000184210064
:100fd4008048780011c0b3001e4090006d010700e6
:100fe40011842100804878000268ef001600370061
:100ff4008040eb001e407800660107002184210038
:101004008048780011c0b3001e40780061010700d9
:1010140031842100804878008040eb001e4090001d
:101024005c010700418421008048780011c0b300ae
:101034001e40900057010700518421008048780029
:101044000368ef000000000010c0b30006e8b7001a
:101054000a21ef000621ef008500a90011e1a80094
:101064000080fa00000006000c00fa00881f7800d7
:10107400200798003107980042079800234f9800f2
:101084004e409000104798005e4090002047980022
:101094006e409000304798004e0490000e00e80027
:1010a40031002000dc040700800f540046003a00a1
:1010b4002e4890000080fb000000e0000300320096
:1010c400e10f50000f0032001c00370070c1800097
:1010d40081c1800092c18000a3c18000b4c180009e
:1010e400c5c18000d6c1800008010700d0c18800b6
:1010f40001822100e282210006000900b218780072
:101104000e003700e0c18000f1c1800002c28000ff
:1011140013c2800024c2800035c2800046c2800011
:10112400fa00070040c2880001822100c283210026
:1011340006000900b2187800000000002002a80090
:10114400cde2a800008221001040780022000700b0
:1011540010822100104078001f0007000040eb00bf
:10116400004f7800070037001e80fb008080e800f5
:101174000082210000804000104078001600070023
:101184001e4fe8001e407800e74f5000f6ff36007f
:10119400a0822100104078000f00070060c1800089
:1011a4001900070000000000111180000010200049
:1011b400008060000000e000fbff3200cde2a900e7
:1011c4002002a90001003700000000004f0478004d
:1011d4000080fa00000006000200fa00004f7800c8
:1011e4001e80fb0020118800000000001111800007
:1011f40000202000008060000000e000fbff3a00b7
:101204000080fa00000006000200fa00000f7800d7
:101214001e0078004800de00201188000000000055
:101224001111800000202000008060000000e00018
:10123400fbff3a009e0078002111880000000000a6
:101244001111800000202000008060000000e000f8
:10125400fbff3a000080fa00000006000400fa00d8
:1012640020479800cd42a9000000000051168000dc
:1012740000002100008060000000e000fbff3a0055
:10128400cd22a900b02c200001002000c3040700d7
:10129400cd42a800b02c200001002000bf040700ac
:1012a400cd42a9000000000051168000000021007a
:1012b400008060000000e000fbff3a000040eb000b
:1012c400004f78001c0037002e4090008080fb0007
:1012d4001e80fb000088de00004078006140600052
:1012e4000080fb00610060004900dd0061168000a1
:1012f4000190a1000100700060168800b02c20004d
:1013040001002000a5040700cd42a800b02c200055
:1013140001002000a1040700cd42a9000000000044
:101324005116800000002100008060000000e000f1
:10133400fbff3a001e4fe8001e407800e74f5000c4
:10134400e1ff3600cd22a800b02c200001002000cf
:1013540092040700cd42a800b02c20000100200018
:101364008e040700cd42a900000000005116800041
:1013740000002100008060000000e000fbff3a0054
:10138400cd22a800b02c2000010020008304070017
:10139400cd42a800b02c2000010020007f040700eb
:1013a400cd42a90000000000511680000000210079
:1013b400008060000000e000fbff3a000080fa00bb
:1013c400000006000200fa000040eb00004f780025
:1013d400cd42a90000000000511680000000210049
:1013e400008060000000e000fbff3a000040eb00da
:1013f4001047980016003700b02c20000100200090
:1014040066040700cd42a800501680004800de00a4
:10141400614060008080fb001e4090000080fb0063
:101424000008dd00804078001e40780000c0700095
:10143400004f7800b02c2000010020005704070062
:10144400cd42a9001e4090000040e80010479800db
:101454001e409000e74f5000e7ff3600b02c2000fc
:10146400010020004d040700cd42a800b02c20004c
:101474000100200049040700cd42a9001e40780065
:101484000080fa00000006000200fa00cd42a90024
:101494000000000051168000000021000080600060
:1014a4000000e000fbff3a000000eb00000f7800b2
:1014b40010003700cd22a800b02c2000010020002d
:1014c40036040700cd42a800b02c20000100200003
:1014d40032040700cd42a90000000000511680002c
:1014e40000002100008060000000e000fbff3a00e3
:1014f4001e0fe800700220009e007800808f5000cc
:10150400ecff36000080fa00000006001a00fa0022
:101514006007980071079800020f9800130f980055
:10152400240f9800350f9800460f98004e489000fd
:10153400104798005e489000204798000040eb0058
:10154400004f7800090037001e80fb000080e8008f
:101554009e80fb008180e80081004700c148900024
:1015640000004700114098001e4fe8001e4078001c
:10157400e74f5000f4ff36000040eb00304f980076
:101584000e00e800b1002000a30307000080fa0069
:10159400000006000400fa00204798003147980034
:1015a40050c5b300004f78003e409000e14f50001a
:1015b40029003a002e4090000080fb00610060008a
:1015c400004078000004e00003003200f1c3b300df
:1015d4001ecf60000200370000ccb3001e4f700025
:1015e4002e4090000080fb00620060000000e000dc
:1015f40003003200f0ccb3001e4f6000020037003d
:1016040000c3b3001e4f70002e4090000080fb000a
:10161400640060000000e0000300320030cfb3003b
:101624001e4f6000020037009e4078006ccf7000af
:101634002e4090000080fb00680060000000e00085
:1016440003003200c0cfb3001e4f60000200370019
:101654009e40780063cf70003e4090000004e0009c
:1016640028003a002e4090000080fb0070006000cb
:101674000000e00003003200f1c3b3001ecf60009d
:101684000200370000ccb3001e4f70002e409000c3
:101694008080fb0000022000008060000000e00069
:1016a40003003200f0ccb3001e4f6000020037008c
:1016b40000c3b3001e4f70002e4090008080fb00da
:1016c40000042000008060000000e00003003200fd
:1016d40030cfb3001e4f6000020037009e407800f8
:1016e4006ccf70002e4090000004e00003003d0029
:1016f400c0cfb3001e4f6000020037009e40780048
:1017040063cf70001e4078000080fa0000000600dd
:101714000000fa00d0802000708088000000eb00f8
:10172400908088000000eb00808088008460a9001d
:101734000021ef0005e1a8000f0037001011800020
:10174400610060000000e0000b0032007080800047
:101754003111800081407800014878007080800059
:101764000000e80070808800808080000000e800ad
:10177400808088000021ef00200480006800600061
:101784000000e000edff32008460a9000021ef00ba
:1017940005e1a9000080fa00000006000800fa0034
:1017a400b1020700004f7800d0802000104078007c
:1017b40020479800e08020001040780030479800cf
:1017c400f0802000104078004047980000812000fd
:1017d400104078000080fb00300798003e00900025
:1017e400c800dd0010812000104078000080fb005c
:1017f40001007000300798002e4090000004e000c3
:1018040012003a003e4090009e4f50000f003a00f4
:101814004e4090000080fb004400de000040780051
:101824000080fb006e0060000000e0000700320052
:101834008041eb001e009000ae0090003e0190003d
:1018440009fe070010c0b300190037002e409000b5
:101854000004e00015003a003e4090008080fb0048
:101864001e80fb000000e800808f50000f003a004b
:101874004e4090000080fb004400de0000407800f1
:101884000080fb006e0060000000e00007003200f2
:1018940013c0b3001e009000ae0090003e01900003
:1018a400f1fd070010c0b300010037000040eb0059
:1018b4000080fa00000006000000fa00d08020003a
:1018c400708088000000eb00908088000000eb002e
:1018d400808088008460a9000021ef0005e1a80051
:1018e4000f00370090118000610060000000e000ec
:1018f4000b00320070808000b111800081407800bc
:1019040001487800708080000000e8007080880042
:10191400808080000000e800808088000021ef00c3
:1019240020048000680060000000e000edff320049
:101934008460a9000021ef0005e1a9000080fa00fd
:10194400000006000000fa00d0802000b1ceb300f1
:101954000148780044020700e180200080487800b4
:101964002000200080808800d080200070808800c3
:101974008080800090808800100037007080800094
:10198400104078000080fb00a01188007080800067
:101994000000e80070808800908080000000e9006a
:1019a4009080880000000000911180000020200039
:1019b400008060000000e000fbff3a00908080009f
:1019c4000000e000edff3a000080fa00000006008d
:1019d4000400fa00c402a800c422a900705920001f
:1019e40001002000ed0207008800070070c7b30063
:1019f40010479800808080004800de000040780096
:101a0400204798008080800000407800304798008c
:101a14000e00e80031002000ad020700004f7800fe
:101a24001e4090001f0007002e4090001d0007007c
:101a34003e4090001b0007001e407800190007007c
:101a4400d0802000708088000000eb009080880027
:101a540009003700708080001040780011000700f2
:101a6400708080000000e800708088009080800012
:101a74000000e800908088009180800080808000d1
:101a8400808f5000f3ff3900c422a800c402a900cb
:101a9400c0fd260001002000c00207000080fa00fb
:101aa400000006000400fa0020479800cd42a90077
:101ab400000000005116800000002100008060003a
:101ac4000000e000fbff3a00cd22a900b02c20006a
:101ad40001002000b1020700cd42a800b02c200074
:101ae40001002000ad020700cd42a9000000000063
:101af4005116800000002100008060000000e0001a
:101b0400fbff3a000040eb00004f78001c00370058
:101b14002e4090008080fb001e80fb000088de00c9
:101b240000407800614060000080fb0061006000bc
:101b34004900dd00611680000190a10001007000e1
:101b440060168800b02c20000100200093020700da
:101b5400cd42a800b02c2000010020008f02070015
:101b6400cd42a900000000005116800000002100b1
:101b7400008060000000e000fbff3a001e4fe80018
:101b84001e407800e74f5000e1ff3600cd22a90047
:101b9400b02c20000100200080020700cd42a800e4
:101ba400b02c2000010020007c020700cd42a900d7
:101bb4000000000051168000000021000080600039
:101bc4000000e000fbff3a00cd22a800b02c20006a
:101bd4000100200071020700cd42a800b02c2000b3
:101be400010020006d020700cd42a90000000000a2
:101bf4005116800000002100008060000000e00019
:101c0400fbff3a000080fa00000006000200fa0020
:101c1400cd42a90000000000511680000000210000
:101c2400008060000000e000fbff3a00cd22a80025
:101c3400b02c20000100200058020700cd42a8006b
:101c4400b02c20000100200054020700cd42a9005e
:101c54000000000051168000000021000080600098
:101c64000000e000fbff3a000000eb00000f7800ea
:101c740010003700cd22a800b02c20000100200065
:101c840046020700cd42a800b02c2000010020002d
:101c940042020700cd42a900000000005116800056
:101ca40000002100008060000000e000fbff3a001b
:101cb4001e0fe800200220009e007800808f500054
:101cc400ecff3600cd22a800b02c2000010020003b
:101cd40032020700cd42a800b02c200001002000f1
:101ce4002e020700cd42a90000000000511680001a
:101cf40000002100008060000000e000fbff3a00cb
:101d0400cd22a800b02c20000100200023020700ef
:101d1400cd42a800b02c2000010020001f020700c3
:101d2400cd42a900000000005116800000002100ef
:101d3400008060000000e000fbff3a000080fa0031
:101d4400000006000000fa000f000700230007004f
:101d5400c60007004b000700760007009c00070040
:101d6400df000700a2fb0700c422a800c402a900e8
:101d7400c0fd26000100200008020700cde2a900f2
:101d84000080fa00000006000000fa00e0032000d2
:101d9400303a8800213a800000fe2f000080600065
:101da400203a8800213a8000000c200001007000d5
:101db400203a88004827ef0040a7a900000000004f
:101dc400113a800000022000008060000000e00062
:101dd400fbff32000080fa00000006000000fa0059
:101de400103a8000000178000260a1006004200025
:101df400710520002374200080497800814978000f
:101e0400824978002135800000fe2f0000806000a8
:101e14000010a0002035880011368000f00f2e003d
:101e240080806000003020000100700010368800bf
:101e34003135800000fe2f0000806000d000b30028
:101e4400303588007136800000fe2f00008060006d
:101e54005000b30070368800103a8000000178000a
:101e64000260a0006004200071052000237420009b
:101e74008049780081497800824978000080fa001e
:101e8400000006000200fa0070c0b300004f7800a2
:101e9400cd42a900cc82a800cc82a900cc82a800a3
:101ea4000468ef0004c8bf0080407800501680002a
:101eb4004500de00614060000081fb001e00fb0065
:101ec4000010dd000040780000c0700004e8b70096
:101ed40060c0b300004f78000e003700cd42a80068
:101ee400cd42a90004c8bf0080407800501680008d
:101ef4004500de00614060000081fb001e00fb0025
:101f04000010dd000040780000c0700004e8b70055
:101f14001e4fe9001e4078000004e000efff3d0082
:101f240004c8bf0000c0ea0004e8b7000080fa005b
:101f3400000006000000fa00d00007000080fb004b
:101f4400e10f50000d003200e10f500003003c008f
:101f54000000e0000600320011003700e20f5000dc
:101f640009003200e30f50000a0032000c00370071
:101f7400c00520004011880009003700d00220006d
:101f84004011880006003700e0012000401188005d
:101f940003003700e000200040118800000000002a
:101fa4002022ef002062a8002002a9002222ef00d4
:101fb40011118000f0f32f000080600010118800e0
:101fc40021e2a8002342a8000080fa0000000600d5
:101fd4000000fa00a90007000080fb00e10f500098
:101fe4000d003200e10f500003003c000000e0004f
:101ff4000600320011003700e20f500009003200e1
:10200400e30f50000a0032000c003700c005200026
:10201400c011880009003700d0022000c0118800d8
:1020240006003700e0012000c011880003003700db
:10203400e0002000c0118800000000003022ef0002
:102044003062a8003002a9003222ef009111800012
:10205400f0f32f00008060009011880031e2a800a6
:102064003342a8000080fa00000006000000fa00d5
:102074000080eb0060198800c422a800c402a900f3
:10208400cd22a800cdc2a800cc62a800cde2a90050
:10209400c002a900c022a900c082a800c842a800aa
:1020a400c862a900c882a900c8a2a800c8c2a90021
:1020b400c8e2a900c902a800c922a900c942a9000e
:1020c400c962a900c982a800c9a2a800c9c2a900fe
:1020d400c9e2a900cd62a8000080fa000000060051
:1020e4000000fa00650007000080fb00e10f5000cb
:1020f4000d003200e10f500003003c000000e0003e
:102104000600320011003700e20f500009003200cf
:10211400e30f50000a0032000c003700d074210095
:10212400100888000900370060ba200010088800f1
:1021340006003700407c20001008880003003700a8
:10214400203e2000100888000000000013e1a900d0
:1021540011e1a9001061a8001021a90010c1a90073
:1021640081088000f0fc2f00008060008008880057
:102174000a21ef000621ef002007200070088800e4
:102184000c21ef000080fa00000006000000fa00b5
:10219400210680000007200001007000200688004e
:1021a40021068000007020000100700020068800d5
:1021b40041058000f0ff28008080600000002600b8
:1021c400010070004005880091058000f08f2f0009
:1021d400808060000060200001007000900588008d
:1021e40061058000f0ff2800808060000000250069
:1021f40001007000600588004105800080ff2f0009
:10220400008060000020a000400588008c20a90008
:102214008c40a9008660a9008560a90087c0a90038
:102224008500a9009500a80011e1a8006000a8009d
:102234009660a8009560a80097c0a8009c20a800fc
:102244009c40a8000080fa00000006000000fa008c
:102254009560a90097c0a9006000a9009660a90034
:102264000080fa00000006000000fa002040800010
:10227400f043b2000080fa00000006000000fa00fb
:10228400204080004600de00634060000080fa00c9
:10229400000006000000fa002002a8003002a80096
:1022a400cde2a80090012100d0c08800e0c08000e9
:1022b400f0c0880019003700d0c0800010407800ba
:1022c4000080fb00a0118800d0c08000104078007e
:1022d4000080fb0020118800d0c080000000e800ce
:1022e400d0c08800f0c080000000e900f0c0880081
:1022f4000000000011118000002020000080600018
:102304000000e000fbff3a00911180000020200053
:10231400008060000000e000f6ff3a00f0c080009a
:102324000000e000e4ff3a0000000000111180000a
:1023340000102000008060000000e000fbff32007d
:10234400cde2a9002002a9003002a9000080fa0011
:10235400000006000200fa000040eb00004f780085
:10236400cd42a900000000005116800000002100a9
:10237400008060000000e000fbff3a000040eb003a
:102384001047980016003700b02c200001002000f0
:1023940082000700cd42a800501680004800de00ed
:1023a400614060008080fb001e4090000080fb00c4
:1023b4000008dd00804078001e40780000c07000f6
:1023c400004f7800b02c20000100200073000700ab
:1023d400cd42a9001e4090000040e800104798003c
:1023e4001e409000e74f5000e7ff3600b02c20005d
:1023f4000100200069000700cd42a800b02c200095
:102404000100200065000700cd42a9001e407800ad
:102414000080fa00000006000a00fa003007980065
:10242400410798000000eb00000f7800ce009000f8
:1024340011079800200037003e00900010407800fb
:102444000080fb004800dd001e0f68003e00900085
:102454000000e800300798000000eb002007980017
:102464000f0037001e0078000000e00006003d0069
:102474001e00780000004000800078005000280012
:10248400008f6800030037001e0078000000400041
:10249400000f78002e0090000000e800200798004c
:1024a4002e009000e70f5000eeff34001e00900055
:1024b4000000e900100798001e0090000000e000f2
:1024c400ddff3a001e0078000080fa0000000600dc
:1024d4000800fa002007980031079800ae00900029
:1024e400010f780000c0eb00204798000900370076
:1024f4001e007800904078002e40900000c06800d4
:102504000080fb00a14f2800614178002247980019
:102514001e0fe8003e00900000f0a7000000ea0053
:102524000000ea004f00de0000407800be0090008a
:102534008100e900310798000004e000ecff3a0054
:0c2544002e4090000080fa00000006000d
:020000040000fa
:10255000080800000c08000000000000040800004b
:102560000200000000000000141000000c08000031
:1025700000000000201800002a00000000000000f9
:1025800006080000020000000200000001c3000075
:10259000000800000400000000000000000000002f
:020000040000fa
:1025a000f03fb1000180b10006003500ee030900e4
:1025b00000000000403fb1000180b100fbff3d0082
:1025c0001000b000203fb00002003500008009007c
:0825d0000000000000000600fd
:020000040000fa
:1025d8000000fa00dafd0700ebfe0700c422a8009d
:1025e800c402a900c0fd260001002000eaff070080
:0825f800bff90700feff3700e8
:020000040000fa
:0200000401f009
:04000000ffff0000fe
:020000040000fa
:0200000401f009
:04000400ffff0000fa
:020000040000fa
:0200000401f009
:04000800ffff0000f6
:020000040000fa
:0200000401f009
:04000c00830000006d
:020000040000fa
:0200000401f009
:04001000a500000047
:020000040000fa
:0200000401f009
:04001400cc0000001c
:020000040000fa
:0200000401f009
:04001800f7000000ed
:020000040000fa
:0200000401f009
:04001c00dfff000002
:00000001FF
